{
  "_format": "hh-sol-artifact-1",
  "contractName": "DaemonLpLocker",
  "sourceName": "contracts/DaemonLpLocker.sol",
  "abi": [
    {
      "inputs": [],
      "stateMutability": "nonpayable",
      "type": "constructor"
    },
    {
      "inputs": [
        {
          "internalType": "address",
          "name": "target",
          "type": "address"
        }
      ],
      "name": "AddressEmptyCode",
      "type": "error"
    },
    {
      "inputs": [
        {
          "internalType": "address",
          "name": "implementation",
          "type": "address"
        }
      ],
      "name": "ERC1967InvalidImplementation",
      "type": "error"
    },
    {
      "inputs": [],
      "name": "ERC1967NonPayable",
      "type": "error"
    },
    {
      "inputs": [],
      "name": "FailedCall",
      "type": "error"
    },
    {
      "inputs": [],
      "name": "InvalidInitialization",
      "type": "error"
    },
    {
      "inputs": [],
      "name": "NotInitializing",
      "type": "error"
    },
    {
      "inputs": [
        {
          "internalType": "address",
          "name": "owner",
          "type": "address"
        }
      ],
      "name": "OwnableInvalidOwner",
      "type": "error"
    },
    {
      "inputs": [
        {
          "internalType": "address",
          "name": "account",
          "type": "address"
        }
      ],
      "name": "OwnableUnauthorizedAccount",
      "type": "error"
    },
    {
      "inputs": [],
      "name": "ReentrancyGuardReentrantCall",
      "type": "error"
    },
    {
      "inputs": [],
      "name": "UUPSUnauthorizedCallContext",
      "type": "error"
    },
    {
      "inputs": [
        {
          "internalType": "bytes32",
          "name": "slot",
          "type": "bytes32"
        }
      ],
      "name": "UUPSUnsupportedProxiableUUID",
      "type": "error"
    },
    {
      "anonymous": false,
      "inputs": [
        {
          "indexed": true,
          "internalType": "address",
          "name": "oldFactory",
          "type": "address"
        },
        {
          "indexed": true,
          "internalType": "address",
          "name": "newFactory",
          "type": "address"
        }
      ],
      "name": "FactoryUpdated",
      "type": "event"
    },
    {
      "anonymous": false,
      "inputs": [
        {
          "indexed": true,
          "internalType": "address",
          "name": "oldFeeLocker",
          "type": "address"
        },
        {
          "indexed": true,
          "internalType": "address",
          "name": "newFeeLocker",
          "type": "address"
        }
      ],
      "name": "FeeLockerUpdated",
      "type": "event"
    },
    {
      "anonymous": false,
      "inputs": [
        {
          "indexed": false,
          "internalType": "uint64",
          "name": "version",
          "type": "uint64"
        }
      ],
      "name": "Initialized",
      "type": "event"
    },
    {
      "anonymous": false,
      "inputs": [
        {
          "indexed": true,
          "internalType": "address",
          "name": "previousOwner",
          "type": "address"
        },
        {
          "indexed": true,
          "internalType": "address",
          "name": "newOwner",
          "type": "address"
        }
      ],
      "name": "OwnershipTransferred",
      "type": "event"
    },
    {
      "anonymous": false,
      "inputs": [
        {
          "indexed": true,
          "internalType": "address",
          "name": "token",
          "type": "address"
        },
        {
          "indexed": false,
          "internalType": "uint256",
          "name": "amount",
          "type": "uint256"
        }
      ],
      "name": "RewardsCollected",
      "type": "event"
    },
    {
      "anonymous": false,
      "inputs": [
        {
          "indexed": true,
          "internalType": "address",
          "name": "token",
          "type": "address"
        },
        {
          "components": [
            {
              "internalType": "address",
              "name": "token",
              "type": "address"
            },
            {
              "components": [
                {
                  "internalType": "address",
                  "name": "currency0",
                  "type": "address"
                },
                {
                  "internalType": "address",
                  "name": "currency1",
                  "type": "address"
                },
                {
                  "internalType": "uint24",
                  "name": "fee",
                  "type": "uint24"
                },
                {
                  "internalType": "int24",
                  "name": "tickSpacing",
                  "type": "int24"
                },
                {
                  "internalType": "address",
                  "name": "hooks",
                  "type": "address"
                }
              ],
              "internalType": "struct DaemonLpLocker.PoolKey",
              "name": "poolKey",
              "type": "tuple"
            },
            {
              "internalType": "uint256",
              "name": "positionId",
              "type": "uint256"
            },
            {
              "internalType": "uint256",
              "name": "numPositions",
              "type": "uint256"
            },
            {
              "internalType": "uint16[]",
              "name": "rewardBps",
              "type": "uint16[]"
            },
            {
              "internalType": "address[]",
              "name": "rewardAdmins",
              "type": "address[]"
            },
            {
              "internalType": "address[]",
              "name": "rewardRecipients",
              "type": "address[]"
            }
          ],
          "indexed": false,
          "internalType": "struct DaemonLpLocker.TokenRewards",
          "name": "rewards",
          "type": "tuple"
        }
      ],
      "name": "TokenRewardsUpdated",
      "type": "event"
    },
    {
      "anonymous": false,
      "inputs": [
        {
          "indexed": true,
          "internalType": "address",
          "name": "implementation",
          "type": "address"
        }
      ],
      "name": "Upgraded",
      "type": "event"
    },
    {
      "inputs": [],
      "name": "BASIS_POINTS",
      "outputs": [
        {
          "internalType": "uint256",
          "name": "",
          "type": "uint256"
        }
      ],
      "stateMutability": "view",
      "type": "function"
    },
    {
      "inputs": [],
      "name": "MAX_LP_POSITIONS",
      "outputs": [
        {
          "internalType": "uint256",
          "name": "",
          "type": "uint256"
        }
      ],
      "stateMutability": "view",
      "type": "function"
    },
    {
      "inputs": [],
      "name": "MAX_REWARD_PARTICIPANTS",
      "outputs": [
        {
          "internalType": "uint256",
          "name": "",
          "type": "uint256"
        }
      ],
      "stateMutability": "view",
      "type": "function"
    },
    {
      "inputs": [],
      "name": "UPGRADE_INTERFACE_VERSION",
      "outputs": [
        {
          "internalType": "string",
          "name": "",
          "type": "string"
        }
      ],
      "stateMutability": "view",
      "type": "function"
    },
    {
      "inputs": [
        {
          "internalType": "address",
          "name": "token",
          "type": "address"
        }
      ],
      "name": "collectRewards",
      "outputs": [],
      "stateMutability": "nonpayable",
      "type": "function"
    },
    {
      "inputs": [],
      "name": "factory",
      "outputs": [
        {
          "internalType": "address",
          "name": "",
          "type": "address"
        }
      ],
      "stateMutability": "view",
      "type": "function"
    },
    {
      "inputs": [],
      "name": "feeLocker",
      "outputs": [
        {
          "internalType": "address",
          "name": "",
          "type": "address"
        }
      ],
      "stateMutability": "view",
      "type": "function"
    },
    {
      "inputs": [
        {
          "internalType": "address",
          "name": "_factory",
          "type": "address"
        },
        {
          "internalType": "address",
          "name": "_feeLocker",
          "type": "address"
        },
        {
          "internalType": "address",
          "name": "_positionManager",
          "type": "address"
        },
        {
          "internalType": "address",
          "name": "_permit2",
          "type": "address"
        },
        {
          "internalType": "address",
          "name": "_owner",
          "type": "address"
        }
      ],
      "name": "initialize",
      "outputs": [],
      "stateMutability": "nonpayable",
      "type": "function"
    },
    {
      "inputs": [],
      "name": "owner",
      "outputs": [
        {
          "internalType": "address",
          "name": "",
          "type": "address"
        }
      ],
      "stateMutability": "view",
      "type": "function"
    },
    {
      "inputs": [],
      "name": "permit2",
      "outputs": [
        {
          "internalType": "address",
          "name": "",
          "type": "address"
        }
      ],
      "stateMutability": "view",
      "type": "function"
    },
    {
      "inputs": [],
      "name": "positionManager",
      "outputs": [
        {
          "internalType": "address",
          "name": "",
          "type": "address"
        }
      ],
      "stateMutability": "view",
      "type": "function"
    },
    {
      "inputs": [],
      "name": "proxiableUUID",
      "outputs": [
        {
          "internalType": "bytes32",
          "name": "",
          "type": "bytes32"
        }
      ],
      "stateMutability": "view",
      "type": "function"
    },
    {
      "inputs": [],
      "name": "renounceOwnership",
      "outputs": [],
      "stateMutability": "nonpayable",
      "type": "function"
    },
    {
      "inputs": [
        {
          "internalType": "address",
          "name": "_factory",
          "type": "address"
        }
      ],
      "name": "setFactory",
      "outputs": [],
      "stateMutability": "nonpayable",
      "type": "function"
    },
    {
      "inputs": [
        {
          "internalType": "address",
          "name": "_feeLocker",
          "type": "address"
        }
      ],
      "name": "setFeeLocker",
      "outputs": [],
      "stateMutability": "nonpayable",
      "type": "function"
    },
    {
      "inputs": [
        {
          "internalType": "address",
          "name": "token",
          "type": "address"
        },
        {
          "components": [
            {
              "internalType": "address",
              "name": "token",
              "type": "address"
            },
            {
              "components": [
                {
                  "internalType": "address",
                  "name": "currency0",
                  "type": "address"
                },
                {
                  "internalType": "address",
                  "name": "currency1",
                  "type": "address"
                },
                {
                  "internalType": "uint24",
                  "name": "fee",
                  "type": "uint24"
                },
                {
                  "internalType": "int24",
                  "name": "tickSpacing",
                  "type": "int24"
                },
                {
                  "internalType": "address",
                  "name": "hooks",
                  "type": "address"
                }
              ],
              "internalType": "struct DaemonLpLocker.PoolKey",
              "name": "poolKey",
              "type": "tuple"
            },
            {
              "internalType": "uint256",
              "name": "positionId",
              "type": "uint256"
            },
            {
              "internalType": "uint256",
              "name": "numPositions",
              "type": "uint256"
            },
            {
              "internalType": "uint16[]",
              "name": "rewardBps",
              "type": "uint16[]"
            },
            {
              "internalType": "address[]",
              "name": "rewardAdmins",
              "type": "address[]"
            },
            {
              "internalType": "address[]",
              "name": "rewardRecipients",
              "type": "address[]"
            }
          ],
          "internalType": "struct DaemonLpLocker.TokenRewards",
          "name": "rewards",
          "type": "tuple"
        }
      ],
      "name": "setTokenRewards",
      "outputs": [],
      "stateMutability": "nonpayable",
      "type": "function"
    },
    {
      "inputs": [
        {
          "internalType": "address",
          "name": "",
          "type": "address"
        }
      ],
      "name": "tokenRewards",
      "outputs": [
        {
          "internalType": "address",
          "name": "token",
          "type": "address"
        },
        {
          "components": [
            {
              "internalType": "address",
              "name": "currency0",
              "type": "address"
            },
            {
              "internalType": "address",
              "name": "currency1",
              "type": "address"
            },
            {
              "internalType": "uint24",
              "name": "fee",
              "type": "uint24"
            },
            {
              "internalType": "int24",
              "name": "tickSpacing",
              "type": "int24"
            },
            {
              "internalType": "address",
              "name": "hooks",
              "type": "address"
            }
          ],
          "internalType": "struct DaemonLpLocker.PoolKey",
          "name": "poolKey",
          "type": "tuple"
        },
        {
          "internalType": "uint256",
          "name": "positionId",
          "type": "uint256"
        },
        {
          "internalType": "uint256",
          "name": "numPositions",
          "type": "uint256"
        }
      ],
      "stateMutability": "view",
      "type": "function"
    },
    {
      "inputs": [
        {
          "internalType": "address",
          "name": "newOwner",
          "type": "address"
        }
      ],
      "name": "transferOwnership",
      "outputs": [],
      "stateMutability": "nonpayable",
      "type": "function"
    },
    {
      "inputs": [
        {
          "internalType": "address",
          "name": "newImplementation",
          "type": "address"
        },
        {
          "internalType": "bytes",
          "name": "data",
          "type": "bytes"
        }
      ],
      "name": "upgradeToAndCall",
      "outputs": [],
      "stateMutability": "payable",
      "type": "function"
    },
    {
      "inputs": [],
      "name": "version",
      "outputs": [
        {
          "internalType": "string",
          "name": "",
          "type": "string"
        }
      ],
      "stateMutability": "view",
      "type": "function"
    }
  ],
  "bytecode": "0x60a080604052346100ea57306080527ff0c57e16840df040f15088dc2f81fe391c3923bec73e23a9662efc9c229c6a005460ff8160401c166100d9576002600160401b03196001600160401b03821601610073575b604051611b0690816100f08239608051818181610f8301526110570152f35b6001600160401b0319166001600160401b039081177ff0c57e16840df040f15088dc2f81fe391c3923bec73e23a9662efc9c229c6a005581527fc7f505b2f371ae2175ee4913f4499e1f2633a7b5936321eed1cdaeb6115181d290602090a13880610054565b63f92ee8a960e01b60005260046000fd5b600080fdfe608080604052600436101561001357600080fd5b60003560e01c90816312261ee714611602575080631459457a1461134a57806314a7f40314610f6b5780632fbc526f146112d157806330bd3eeb1461121b5780634f1ef28614610fda57806352d1902d14610f7057806352db242f14610f6b57806354fd4d5014610e955780635763dbd014610a1a5780635bb478081461096f57806370e9d24414610946578063715018a6146108dc578063791b98bc146108b35780638da5cb5b1461087d578063a1c8e2d2146101b4578063ad3cb1cc14610171578063c45a015514610148578063e1f1c4a71461012b5763f2fde38b146100fb57600080fd5b3461012657602036600319011261012657610124610117611626565b61011f61198b565b611915565b005b600080fd5b346101265760003660031901126101265760206040516127108152f35b34610126576000366003190112610126576001546040516001600160a01b039091168152602090f35b34610126576000366003190112610126576101b06040805190610194818361166c565b60058252640352e302e360dc1b60208301525191829182611750565b0390f35b34610126576040366003190112610126576101cd611626565b60243567ffffffffffffffff81116101265780600401916101606003198336030112610126576101fb61198b565b6001600160a01b031691821561084857610144820190600a61021d8383611847565b90501161080d5760e4830135600a81116107d3579084916000926000956101048101945b61024b8686611847565b90508810156102b75761025e8686611847565b8910156102a15761027661ffff918a60051b0161187d565b16810180911161028b57600190970196610241565b634e487b7160e01b600052601160045260246000fd5b634e487b7160e01b600052603260045260246000fd5b868661271087931161079b576000858152600560205260409020936001600160a01b036102e38561188c565b86546001600160a01b031916911617855560248101916103028361188c565b6001870180546001600160a01b0319166001600160a01b039283161790556002870198604484019790916103358961188c565b166001600160601b0360a01b8b5416178a55606484013562ffffff81169a8b8203610126578054916084870135928360020b938481036101265760b81b62ffffff60b81b169162ffffff60a01b9060a01b169065ffffffffffff60a01b19161717905560a48501906103a68261188c565b600384019060018060a01b03166001600160601b0360a01b82541617905560c486013592836004820155846005820155600681016103e4878c611847565b9067ffffffffffffffff821161065957600160401b8211610659578254828455808310610747575b509160005260206000208160041c9160005b8381106106fa5750600f1981169003806106a8575b505050506101246007820197019661044b888c611847565b919067ffffffffffffffff831161065957600160401b831161065957815483835580841061068a575b5090600052602060002060005b83811061066f5750505050600801610499898b611847565b919067ffffffffffffffff831161065957600160401b831161065957815483835580841061063b575b5090600052602060002060005b83811061062057505050509061056c949392916040519a60208c526101808c01988c60208d61050460018060a01b039161163c565b169101526001600160a01b039061051a9061163c565b1660408d01526001600160a01b03906105329061163c565b1660608c015260009c60808c015260a08b015261055560018060a01b039161163c565b1660c08a015260e0890152610100880152856118a0565b610160610120880152928390526101a086019288905b8082106105f65789897fe0f93403ec6dae5e8ccf0dfb7b3bed2da0cd17c4846115707aa2410e408c6e058a806105f08c6105dd8d6105d78e6105c48f866118a0565b888303601f19016101408a0152906118d5565b926118a0565b848303601f1901610160860152906118d5565b0390a280f35b90919384359061ffff821680920361061c57602081600193829352019501920190610582565b8a80fd5b600190602061062e8561188c565b94019381840155016104cf565b610653908360005284602060002091820191016117da565b8f6104c2565b634e487b7160e01b600052604160045260246000fd5b600190602061067d8561188c565b9401938184015501610481565b6106a2908360005284602060002091820191016117da565b38610474565b9260009360005b8181106106c45750505001558d808080610433565b90919460206106f06001926106d88961187d565b9085851b61ffff809160031b9316831b921b19161790565b96019291016106af565b6000805b6010811061071357508382015560010161041e565b9590602061073e6001926107268561187d565b908a851b61ffff809160031b9316831b921b19161790565b920196016106fe565b61077890846000526020600020600f80860160041c820192601e8760011b168061077e575b500160041c01906117da565b3861040c565b6000198501908154906000199060200360031b1c1690553861076c565b60405162461bcd60e51b815260206004820152601060248201526f4250532065786365656473203130302560801b6044820152606490fd5b60405162461bcd60e51b8152602060048201526012602482015271546f6f206d616e7920706f736974696f6e7360701b6044820152606490fd5b60405162461bcd60e51b8152602060048201526013602482015272546f6f206d616e7920726563697069656e747360681b6044820152606490fd5b60405162461bcd60e51b815260206004820152600d60248201526c24b73b30b634b2103a37b5b2b760991b6044820152606490fd5b3461012657600036600319011261012657600080516020611a51833981519152546040516001600160a01b039091168152602090f35b34610126576000366003190112610126576003546040516001600160a01b039091168152602090f35b34610126576000366003190112610126576108f561198b565b600080516020611a5183398151915280546001600160a01b031981169091556000906001600160a01b03167f8be0079c531659141344cd1fd0a4f28419497f9722a3daafe3b4186f6b6457e08280a3005b34610126576000366003190112610126576002546040516001600160a01b039091168152602090f35b3461012657602036600319011261012657610988611626565b61099061198b565b6001600160a01b031680156109e357600180546001600160a01b0319811683179091556001600160a01b03167f333c7678baf16017cf31e1d2f90143a62aab01a67a0807f6836a4304ceabb555600080a3005b60405162461bcd60e51b815260206004820152600f60248201526e496e76616c696420666163746f727960881b6044820152606490fd5b3461012657602036600319011261012657610a33611626565b6002600080516020611a918339815191525414610e84576002600080516020611a91833981519152556001600160a01b03166000818152600560205260409081902090519060e0820167ffffffffffffffff8111838210176106595760405280546001600160a01b03168252610aab6001820161168e565b60208301526004810154604083015260058101546060830152600681016040519081602082549182815201916000526020600020906000915b81600f840110610da25793610ba195938193610b85936008975491818110610d8d575b818110610d75575b818110610d5e575b818110610d46575b818110610d2e575b818110610d16575b818110610cfe575b818110610ce6575b818110610cce575b818110610cb6575b818110610c9e575b818110610c86575b818110610c6e575b818110610c56575b818110610c3e575b10610c30575b50038261166c565b6080850152610b96600782016117f1565b60a0850152016117f1565b60c0820152516001600160a01b031615610bf4577ff404cd4814ff561c9e00078e4984b7c5580a7d479c47554807962de186f34e9a602060405160008152a26001600080516020611a9183398151915255005b60405162461bcd60e51b8152602060048201526014602482015273151bdad95b881b9bdd0818dbdb999a59dd5c995960621b6044820152606490fd5b60f01c815260200189610b7d565b92602060019161ffff8560e01c168152019301610b77565b92602060019161ffff8560d01c168152019301610b6f565b92602060019161ffff8560c01c168152019301610b67565b92602060019161ffff8560b01c168152019301610b5f565b92602060019161ffff8560a01c168152019301610b57565b92602060019161ffff8560901c168152019301610b4f565b92602060019161ffff8560801c168152019301610b47565b92602060019161ffff8560701c168152019301610b3f565b92602060019161ffff8560601c168152019301610b37565b92602060019161ffff8560501c168152019301610b2f565b92602060019161ffff8560401c168152019301610b27565b92602060019161ffff8560301c168152019301610b1f565b92602060019161ffff85831c168152019301610b17565b92602060019161ffff8560101c168152019301610b0f565b92602060019161ffff85168152019301610b07565b926001610200601092865461ffff8116825261ffff81861c16602083015261ffff8160201c16604083015261ffff8160301c16606083015261ffff8160401c16608083015261ffff8160501c1660a083015261ffff8160601c1660c083015261ffff8160701c1660e083015261ffff8160801c1661010083015261ffff8160901c1661012083015261ffff8160a01c1661014083015261ffff8160b01c1661016083015261ffff8160c01c1661018083015261ffff8160d01c166101a083015261ffff8160e01c166101c083015260f01c6101e0820152019401920191610ae4565b633ee5aeb560e01b60005260046000fd5b346101265760003660031901126101265760405160008054610eb681611716565b8084529060018116908115610f475750600114610eea575b6101b083610ede8185038261166c565b60405191829182611750565b60008080527f290decd9548b62a8d60345a988386fc84ba6bc95484008f6362f93160ef3e563939250905b808210610f2d57509091508101602001610ede610ece565b919260018160209254838588010152019101909291610f15565b60ff191660208086019190915291151560051b84019091019150610ede9050610ece565b611650565b34610126576000366003190112610126577f00000000000000000000000000000000000000000000000000000000000000006001600160a01b03163003610fc9576020604051600080516020611a718339815191528152f35b63703e46dd60e11b60005260046000fd5b604036600319011261012657610fee611626565b6024359067ffffffffffffffff821161012657366023830112156101265781600401359061101b826116fa565b91611029604051938461166c565b8083526020830193366024838301011161012657816000926024602093018737840101526001600160a01b037f0000000000000000000000000000000000000000000000000000000000000000163081149081156111f8575b50610fc95761108f61198b565b6040516352d1902d60e01b81526001600160a01b0382169390602081600481885afa600091816111c4575b506110d45784634c9c8ce360e01b60005260045260246000fd5b80600080516020611a718339815191528692036111b05750823b1561119c57600080516020611a7183398151915280546001600160a01b031916821790557fbc7cd75a20ee27fd9adebab32041f755214dbc6bffa90cc0225b39da2e5c2d3b600080a28251156111815760008091610124945190845af43d15611179573d9161115c836116fa565b9261116a604051948561166c565b83523d6000602085013e6119ef565b6060916119ef565b5050503461118b57005b63b398979f60e01b60005260046000fd5b634c9c8ce360e01b60005260045260246000fd5b632a87526960e21b60005260045260246000fd5b9091506020813d6020116111f0575b816111e06020938361166c565b81010312610126575190866110ba565b3d91506111d3565b600080516020611a71833981519152546001600160a01b03161415905084611082565b34610126576020366003190112610126576001600160a01b0361123c611626565b166000526005602052610100604060002060018060a01b03815416906112646001820161168e565b90600560048201549101549160405193845260018060a01b03815116602085015260018060a01b03602082015116604085015262ffffff6040820151166060850152606081015160020b6080850152608060018060a01b039101511660a084015260c083015260e0820152f35b34610126576020366003190112610126576112ea611626565b6112f261198b565b6001600160a01b0316611306811515611799565b600280546001600160a01b0319811683179091556001600160a01b03167f61aa1650d9073c5d4f5a9e5d7a53d07e59b25fb1e67aa76a81e912147ca82722600080a3005b346101265760a036600319011261012657611363611626565b6024356001600160a01b03811690819003610126576044356001600160a01b03811690819003610126576064356001600160a01b038116929083900361012657608435936001600160a01b038516850361012657600080516020611ab18339815191525460ff8160401c16159567ffffffffffffffff8216801590816115fa575b60011490816115f0575b1590816115e7575b506115d65767ffffffffffffffff198216600117600080516020611ab18339815191525561143591876115a9575b5061142d6119c1565b61011f6119c1565b61143d6119c1565b6114456119c1565b6001600080516020611a918339815191525561145f6119c1565b61146a821515611799565b611475600054611716565b601f8111611541575b50600a640312e302e360dc1b0160005560018060a01b03166001600160601b0360a01b60015416176001556001600160601b0360a01b60025416176002556001600160601b0360a01b60035416176003556001600160601b0360a01b60045416176004556114e857005b68ff000000000000000019600080516020611ab18339815191525416600080516020611ab1833981519152557fc7f505b2f371ae2175ee4913f4499e1f2633a7b5936321eed1cdaeb6115181d2602060405160018152a1005b601f90600080520160051c7f290decd9548b62a8d60345a988386fc84ba6bc95484008f6362f93160ef3e563017f290decd9548b62a8d60345a988386fc84ba6bc95484008f6362f93160ef3e5635b81811061159d575061147e565b60008155600101611590565b68ffffffffffffffffff19166801000000000000000117600080516020611ab18339815191525587611424565b63f92ee8a960e01b60005260046000fd5b905015886113f6565b303b1591506113ee565b8891506113e4565b34610126576000366003190112610126576004546001600160a01b03168152602090f35b600435906001600160a01b038216820361012657565b35906001600160a01b038216820361012657565b34610126576000366003190112610126576020604051600a8152f35b90601f8019910116810190811067ffffffffffffffff82111761065957604052565b9060405160a0810181811067ffffffffffffffff821117610659576040526080819360018060a01b038154168352600181015460018060a01b038116602085015262ffffff8160a01c16604085015260b81c60020b6060840152600260018060a01b0391015416910152565b67ffffffffffffffff811161065957601f01601f191660200190565b90600182811c92168015611746575b602083101461173057565b634e487b7160e01b600052602260045260246000fd5b91607f1691611725565b91909160208152825180602083015260005b818110611783575060409293506000838284010152601f8019910116010190565b8060208092870101516040828601015201611762565b156117a057565b60405162461bcd60e51b815260206004820152601260248201527124b73b30b634b2103332b2903637b1b5b2b960711b6044820152606490fd5b8181106117e5575050565b600081556001016117da565b906040519182815491828252602082019060005260206000209260005b8181106118255750506118239250038361166c565b565b84546001600160a01b031683526001948501948794506020909301920161180e565b903590601e1981360301821215610126570180359067ffffffffffffffff821161012657602001918160051b3603831361012657565b3561ffff811681036101265790565b356001600160a01b03811681036101265790565b9035601e198236030181121561012657016020813591019167ffffffffffffffff8211610126578160051b3603831361012657565b9160209082815201919060005b8181106118ef5750505090565b909192602080600192838060a01b036119078861163c565b1681520194019291016118e2565b6001600160a01b0316801561197557600080516020611a5183398151915280546001600160a01b0319811683179091556001600160a01b03167f8be0079c531659141344cd1fd0a4f28419497f9722a3daafe3b4186f6b6457e0600080a3565b631e4fbdf760e01b600052600060045260246000fd5b600080516020611a51833981519152546001600160a01b031633036119ac57565b63118cdaa760e01b6000523360045260246000fd5b60ff600080516020611ab18339815191525460401c16156119de57565b631afcd79f60e31b60005260046000fd5b90611a155750805115611a0457602081519101fd5b63d6bda27560e01b60005260046000fd5b81511580611a47575b611a26575090565b639996b31560e01b60009081526001600160a01b0391909116600452602490fd5b50803b15611a1e56fe9016d09d72d40fdae2fd8ceac6b6234c7706214fd39c1cd1e609a0528c199300360894a13ba1a3210667c828492db98dca3e2076cc3735a920a3ca505d382bbc9b779b17422d0df92223018b32b4d1fa46e071723d6817e2486d003becc55f00f0c57e16840df040f15088dc2f81fe391c3923bec73e23a9662efc9c229c6a00a2646970667358221220f038c15c622ecd6f10370a9cb3622359e40a193402c0995e9edcf251ea06422f64736f6c634300081c0033",
  "linkReferences": {},
  "deployedLinkReferences": {}
}