{
  "_format": "hh-sol-artifact-1",
  "contractName": "FeeSplitter",
  "sourceName": "rewards/FeeSplitter.sol",
  "abi": [
    {
      "inputs": [
        {
          "internalType": "address",
          "name": "_builderRewardDistributor",
          "type": "address"
        },
        {
          "internalType": "address",
          "name": "_feeLocker",
          "type": "address"
        },
        {
          "internalType": "address",
          "name": "_socialNetworkFund",
          "type": "address"
        },
        {
          "internalType": "address",
          "name": "_initialOwner",
          "type": "address"
        }
      ],
      "stateMutability": "nonpayable",
      "type": "constructor"
    },
    {
      "inputs": [
        {
          "internalType": "address",
          "name": "owner",
          "type": "address"
        }
      ],
      "name": "OwnableInvalidOwner",
      "type": "error"
    },
    {
      "inputs": [
        {
          "internalType": "address",
          "name": "account",
          "type": "address"
        }
      ],
      "name": "OwnableUnauthorizedAccount",
      "type": "error"
    },
    {
      "inputs": [],
      "name": "ReentrancyGuardReentrantCall",
      "type": "error"
    },
    {
      "inputs": [
        {
          "internalType": "address",
          "name": "token",
          "type": "address"
        }
      ],
      "name": "SafeERC20FailedOperation",
      "type": "error"
    },
    {
      "anonymous": false,
      "inputs": [
        {
          "indexed": false,
          "internalType": "address",
          "name": "oldDistributor",
          "type": "address"
        },
        {
          "indexed": false,
          "internalType": "address",
          "name": "newDistributor",
          "type": "address"
        }
      ],
      "name": "BuilderRewardDistributorUpdated",
      "type": "event"
    },
    {
      "anonymous": false,
      "inputs": [
        {
          "indexed": true,
          "internalType": "address",
          "name": "token",
          "type": "address"
        },
        {
          "indexed": false,
          "internalType": "uint256",
          "name": "amount",
          "type": "uint256"
        }
      ],
      "name": "BuilderRewardsDistributed",
      "type": "event"
    },
    {
      "anonymous": false,
      "inputs": [
        {
          "indexed": false,
          "internalType": "address",
          "name": "oldLocker",
          "type": "address"
        },
        {
          "indexed": false,
          "internalType": "address",
          "name": "newLocker",
          "type": "address"
        }
      ],
      "name": "FeeLockerUpdated",
      "type": "event"
    },
    {
      "anonymous": false,
      "inputs": [
        {
          "indexed": true,
          "internalType": "address",
          "name": "token",
          "type": "address"
        },
        {
          "indexed": false,
          "internalType": "uint256",
          "name": "totalFees",
          "type": "uint256"
        },
        {
          "indexed": false,
          "internalType": "uint256",
          "name": "builderCut",
          "type": "uint256"
        },
        {
          "indexed": false,
          "internalType": "uint256",
          "name": "tokenDevShare",
          "type": "uint256"
        },
        {
          "indexed": false,
          "internalType": "uint256",
          "name": "stakerShare",
          "type": "uint256"
        }
      ],
      "name": "FeesSplit",
      "type": "event"
    },
    {
      "anonymous": false,
      "inputs": [
        {
          "indexed": true,
          "internalType": "address",
          "name": "previousOwner",
          "type": "address"
        },
        {
          "indexed": true,
          "internalType": "address",
          "name": "newOwner",
          "type": "address"
        }
      ],
      "name": "OwnershipTransferred",
      "type": "event"
    },
    {
      "anonymous": false,
      "inputs": [
        {
          "indexed": false,
          "internalType": "address",
          "name": "oldFund",
          "type": "address"
        },
        {
          "indexed": false,
          "internalType": "address",
          "name": "newFund",
          "type": "address"
        }
      ],
      "name": "SocialNetworkFundUpdated",
      "type": "event"
    },
    {
      "anonymous": false,
      "inputs": [
        {
          "indexed": true,
          "internalType": "address",
          "name": "token",
          "type": "address"
        },
        {
          "indexed": false,
          "internalType": "uint256",
          "name": "amount",
          "type": "uint256"
        }
      ],
      "name": "StakerRewardsDistributed",
      "type": "event"
    },
    {
      "anonymous": false,
      "inputs": [
        {
          "indexed": true,
          "internalType": "address",
          "name": "token",
          "type": "address"
        },
        {
          "indexed": false,
          "internalType": "address",
          "name": "devAddress",
          "type": "address"
        }
      ],
      "name": "TokenDevAddressUpdated",
      "type": "event"
    },
    {
      "anonymous": false,
      "inputs": [
        {
          "indexed": true,
          "internalType": "address",
          "name": "token",
          "type": "address"
        },
        {
          "indexed": false,
          "internalType": "address",
          "name": "dev",
          "type": "address"
        },
        {
          "indexed": false,
          "internalType": "uint256",
          "name": "amount",
          "type": "uint256"
        }
      ],
      "name": "TokenDevRewardsDistributed",
      "type": "event"
    },
    {
      "anonymous": false,
      "inputs": [
        {
          "indexed": true,
          "internalType": "address",
          "name": "token",
          "type": "address"
        },
        {
          "indexed": false,
          "internalType": "uint256",
          "name": "stakerShareBps",
          "type": "uint256"
        }
      ],
      "name": "TokenFeeSplitUpdated",
      "type": "event"
    },
    {
      "inputs": [],
      "name": "BPS_DENOMINATOR",
      "outputs": [
        {
          "internalType": "uint256",
          "name": "",
          "type": "uint256"
        }
      ],
      "stateMutability": "view",
      "type": "function"
    },
    {
      "inputs": [],
      "name": "BUILDER_CUT_BPS",
      "outputs": [
        {
          "internalType": "uint256",
          "name": "",
          "type": "uint256"
        }
      ],
      "stateMutability": "view",
      "type": "function"
    },
    {
      "inputs": [],
      "name": "REMAINING_BPS",
      "outputs": [
        {
          "internalType": "uint256",
          "name": "",
          "type": "uint256"
        }
      ],
      "stateMutability": "view",
      "type": "function"
    },
    {
      "inputs": [],
      "name": "SOCIAL_NETWORK_CUT_BPS",
      "outputs": [
        {
          "internalType": "uint256",
          "name": "",
          "type": "uint256"
        }
      ],
      "stateMutability": "view",
      "type": "function"
    },
    {
      "inputs": [
        {
          "internalType": "address[]",
          "name": "tokens",
          "type": "address[]"
        },
        {
          "internalType": "uint256[]",
          "name": "stakerShareBpsArray",
          "type": "uint256[]"
        }
      ],
      "name": "batchSetTokenFeeSplit",
      "outputs": [],
      "stateMutability": "nonpayable",
      "type": "function"
    },
    {
      "inputs": [],
      "name": "builderRewardDistributor",
      "outputs": [
        {
          "internalType": "address",
          "name": "",
          "type": "address"
        }
      ],
      "stateMutability": "view",
      "type": "function"
    },
    {
      "inputs": [],
      "name": "feeLocker",
      "outputs": [
        {
          "internalType": "address",
          "name": "",
          "type": "address"
        }
      ],
      "stateMutability": "view",
      "type": "function"
    },
    {
      "inputs": [
        {
          "internalType": "address",
          "name": "token",
          "type": "address"
        }
      ],
      "name": "getTokenFeeSplit",
      "outputs": [
        {
          "internalType": "uint256",
          "name": "stakerShareBps",
          "type": "uint256"
        },
        {
          "internalType": "uint256",
          "name": "tokenDevShareBps",
          "type": "uint256"
        }
      ],
      "stateMutability": "view",
      "type": "function"
    },
    {
      "inputs": [],
      "name": "owner",
      "outputs": [
        {
          "internalType": "address",
          "name": "",
          "type": "address"
        }
      ],
      "stateMutability": "view",
      "type": "function"
    },
    {
      "inputs": [],
      "name": "renounceOwnership",
      "outputs": [],
      "stateMutability": "nonpayable",
      "type": "function"
    },
    {
      "inputs": [
        {
          "internalType": "address",
          "name": "newDistributor",
          "type": "address"
        }
      ],
      "name": "setBuilderRewardDistributor",
      "outputs": [],
      "stateMutability": "nonpayable",
      "type": "function"
    },
    {
      "inputs": [
        {
          "internalType": "address",
          "name": "newLocker",
          "type": "address"
        }
      ],
      "name": "setFeeLocker",
      "outputs": [],
      "stateMutability": "nonpayable",
      "type": "function"
    },
    {
      "inputs": [
        {
          "internalType": "address",
          "name": "newFund",
          "type": "address"
        }
      ],
      "name": "setSocialNetworkFund",
      "outputs": [],
      "stateMutability": "nonpayable",
      "type": "function"
    },
    {
      "inputs": [
        {
          "internalType": "address",
          "name": "token",
          "type": "address"
        },
        {
          "internalType": "address",
          "name": "devAddress",
          "type": "address"
        }
      ],
      "name": "setTokenDevAddress",
      "outputs": [],
      "stateMutability": "nonpayable",
      "type": "function"
    },
    {
      "inputs": [
        {
          "internalType": "address",
          "name": "token",
          "type": "address"
        },
        {
          "internalType": "uint256",
          "name": "stakerShareBps",
          "type": "uint256"
        }
      ],
      "name": "setTokenFeeSplit",
      "outputs": [],
      "stateMutability": "nonpayable",
      "type": "function"
    },
    {
      "inputs": [],
      "name": "socialNetworkFund",
      "outputs": [
        {
          "internalType": "address",
          "name": "",
          "type": "address"
        }
      ],
      "stateMutability": "view",
      "type": "function"
    },
    {
      "inputs": [
        {
          "internalType": "address",
          "name": "token",
          "type": "address"
        },
        {
          "internalType": "uint256",
          "name": "totalFees",
          "type": "uint256"
        }
      ],
      "name": "splitFees",
      "outputs": [],
      "stateMutability": "nonpayable",
      "type": "function"
    },
    {
      "inputs": [
        {
          "internalType": "address",
          "name": "",
          "type": "address"
        }
      ],
      "name": "tokenDevAddress",
      "outputs": [
        {
          "internalType": "address",
          "name": "",
          "type": "address"
        }
      ],
      "stateMutability": "view",
      "type": "function"
    },
    {
      "inputs": [
        {
          "internalType": "address",
          "name": "",
          "type": "address"
        }
      ],
      "name": "tokenFeeSplit",
      "outputs": [
        {
          "internalType": "uint256",
          "name": "",
          "type": "uint256"
        }
      ],
      "stateMutability": "view",
      "type": "function"
    },
    {
      "inputs": [
        {
          "internalType": "address",
          "name": "newOwner",
          "type": "address"
        }
      ],
      "name": "transferOwnership",
      "outputs": [],
      "stateMutability": "nonpayable",
      "type": "function"
    }
  ],
  "bytecode": "0x6080346101c357601f61113338819003918201601f19168301916001600160401b038311848410176101c8578084926080946040528339810103126101c357610047816101de565b610053602083016101de565b61005f604084016101de565b926001600160a01b0390610075906060016101de565b169182156101ad57600080546001600160a01b031981168517825560405194916001600160a01b03909116907f8be0079c531659141344cd1fd0a4f28419497f9722a3daafe3b4186f6b6457e09080a3600180556001600160a01b031691821561016b57506001600160a01b03169081156101315760018060a01b0319600254161760025560018060a01b0319600354161760035560018060a01b031660018060a01b03196004541617600455604051610f4090816101f38239f35b60405162461bcd60e51b815260206004820152601260248201527124b73b30b634b2103332b2903637b1b5b2b960711b6044820152606490fd5b62461bcd60e51b815260206004820152601360248201527f496e76616c6964206469737472696275746f72000000000000000000000000006044820152606490fd5b631e4fbdf760e01b600052600060045260246000fd5b600080fd5b634e487b7160e01b600052604160045260246000fd5b51906001600160a01b03821682036101c35756fe608080604052600436101561001357600080fd5b60003560e01c9081630ba739e914610c69575080632f006e7114610be65780632fbc526f14610b24578063413c5a9314610a8e5780634560b9af1461092657806348ea2f7c1461085f5780635ec990021461084257806364e950481461080857806370e9d244146107df578063715018a61461078657806382b8c0711461074457806389cec282146106c75780638c4fef5e146106aa5780638da5cb5b146106815780639001a0d014610664578063a0add61e14610233578063ac14f88d1461020a578063e1a45218146101ed578063f2fde38b146101645763fe2f6328146100fb57600080fd5b3461015f57602036600319011261015f576001600160a01b0361011c610c8d565b16600052600560205260406000205480612710039061271082116101495760409182519182526020820152f35b634e487b7160e01b600052601160045260246000fd5b600080fd5b3461015f57602036600319011261015f5761017d610c8d565b610185610e46565b6001600160a01b031680156101d757600080546001600160a01b03198116831782556001600160a01b0316907f8be0079c531659141344cd1fd0a4f28419497f9722a3daafe3b4186f6b6457e09080a3005b631e4fbdf760e01b600052600060045260246000fd5b3461015f57600036600319011261015f5760206040516127108152f35b3461015f57600036600319011261015f576004546040516001600160a01b039091168152602090f35b3461015f57604036600319011261015f5761024c610c8d565b602435906002600154146106535760026001558115610624576001600160a01b0381169161027b831515610cd4565b6101f481028181046101f4036101495761271090049161012c820282810461012c036101495761271090046102b9816102b48686610d84565b610d84565b91856000526005602052604060002054808402908482041484151715610149576127106102e891048094610d84565b9185151580610610575b6105aa575b80151580610596575b610516575b50508015158061042a575b5081151580610416575b610362575b90608092917f4572bc805a2066bc1a5f231cde66d67de849c730369a93deea9b345cd581995094604051938452602084015260408301526060820152a260018055005b6003546001600160a01b031692919083156103dc577f4572bc805a2066bc1a5f231cde66d67de849c730369a93deea9b345cd5819950946103a68360809689610e6f565b867fd83026845b1101ee41b0047ddfd65074975673de9c48fc53bb1d21dcbc80dcc16020604051868152a294509091925061031f565b60405162461bcd60e51b8152602060048201526012602482015271119959481b1bd8dad95c881b9bdd081cd95d60721b6044820152606490fd5b506003546001600160a01b0316151561031a565b600086815260066020526040902054869083906001600160a01b03168015158061050f575b156104a55782935061048382827f717b9a4b3c23bb0b359de517cb3e00c86adf28bdd0ce5978a00eceda3feee27295610e6f565b604080516001600160a01b039290921682526020820192909252a25b85610310565b505050806104fb575b1561049f576003546104cb9082906001600160a01b031687610e6f565b847fd83026845b1101ee41b0047ddfd65074975673de9c48fc53bb1d21dcbc80dcc16020604051848152a261049f565b506003546001600160a01b031615156104ae565b508361044f565b60008161058f93610533839460018060a01b03600454168c610e6f565b60045460405163a71532cd60e01b602082019081526001600160a01b039384166024830152604482019490945291169190839061057d81606481015b03601f198101835282610d91565b51925af1610589610dc9565b50610e09565b8580610305565b506004546001600160a01b03161515610300565b6002546105c29087906001600160a01b031689610e6f565b600254604051634bd68e6760e11b602082019081526001600160a01b038581166024840152604483018a905261060b9360009384939190921691839061057d816064810161056f565b6102f7565b506002546001600160a01b031615156102f2565b60405162461bcd60e51b81526020600482015260076024820152664e6f206665657360c81b6044820152606490fd5b633ee5aeb560e01b60005260046000fd5b3461015f57600036600319011261015f57602060405161251c8152f35b3461015f57600036600319011261015f576000546040516001600160a01b039091168152602090f35b3461015f57600036600319011261015f57602060405161012c8152f35b3461015f57602036600319011261015f577f107acc0a19529b57e768a9b44b483bb8001e58954c701335787bac0260f725da610701610c8d565b610709610e46565b600480546001600160a01b039283166001600160a01b031982168117909255604080519390911683526020830191909152819081015b0390a1005b3461015f57602036600319011261015f576001600160a01b03610765610c8d565b166000526006602052602060018060a01b0360406000205416604051908152f35b3461015f57600036600319011261015f5761079f610e46565b600080546001600160a01b0319811682556001600160a01b03167f8be0079c531659141344cd1fd0a4f28419497f9722a3daafe3b4186f6b6457e08280a3005b3461015f57600036600319011261015f576003546040516001600160a01b039091168152602090f35b3461015f57602036600319011261015f576001600160a01b03610829610c8d565b1660005260056020526020604060002054604051908152f35b3461015f57600036600319011261015f5760206040516101f48152f35b3461015f57602036600319011261015f57610878610c8d565b610880610e46565b6001600160a01b0381169081156108eb57600280546001600160a01b031981169093179055604080516001600160a01b0393841681529290911660208301527f50d4d45c1d0316c14a887cb71e616ddd59234cc2bf59bf095ed7ab038f456b0291908190810161073f565b60405162461bcd60e51b815260206004820152601360248201527224b73b30b634b2103234b9ba3934b13aba37b960691b6044820152606490fd5b3461015f57604036600319011261015f5760043567ffffffffffffffff811161015f57610957903690600401610ca3565b60243567ffffffffffffffff811161015f57610977903690600401610ca3565b91610980610e46565b828103610a575760005b81811061099357005b6001906109bc6001600160a01b036109b46109af84878b610d4a565b610d70565b161515610cd4565b6109d56127106109cd838888610d4a565b351115610d10565b6109e0818686610d4a565b35828060a01b036109f56109af84878b610d4a565b166000526005602052604060002055610a126109af828589610d4a565b7f37920bfa26078647b49a333c7733f016c59584522b42258c34ee7c5621b16f236020610a40848989610d4a565b3592604051938452858060a01b031692a20161098a565b60405162461bcd60e51b815260206004820152600f60248201526e098cadccee8d040dad2e6dac2e8c6d608b1b6044820152606490fd5b3461015f57604036600319011261015f57610aa7610c8d565b6024356001600160a01b038116919082900361015f576001600160a01b0316907f45ba47e52f272fcbd781789956bfd0f9ab1dbb66f7f4022872e23ad67a6d002a90602090610af7841515610cd4565b83600052600682526040600020816bffffffffffffffffffffffff60a01b825416179055604051908152a2005b3461015f57602036600319011261015f57610b3d610c8d565b610b45610e46565b6001600160a01b038116908115610bb057600380546001600160a01b031981169093179055604080516001600160a01b0393841681529290911660208301527f61aa1650d9073c5d4f5a9e5d7a53d07e59b25fb1e67aa76a81e912147ca8272291908190810161073f565b60405162461bcd60e51b815260206004820152600e60248201526d24b73b30b634b2103637b1b5b2b960911b6044820152606490fd5b3461015f57604036600319011261015f57610bff610c8d565b7f37920bfa26078647b49a333c7733f016c59584522b42258c34ee7c5621b16f23602060243592610c2e610e46565b6001600160a01b031692610c43841515610cd4565b610c51612710821115610d10565b836000526005825280604060002055604051908152a2005b3461015f57600036600319011261015f576002546001600160a01b03168152602090f35b600435906001600160a01b038216820361015f57565b9181601f8401121561015f5782359167ffffffffffffffff831161015f576020808501948460051b01011161015f57565b15610cdb57565b60405162461bcd60e51b815260206004820152600d60248201526c24b73b30b634b2103a37b5b2b760991b6044820152606490fd5b15610d1757565b60405162461bcd60e51b815260206004820152600b60248201526a496e76616c69642042505360a81b6044820152606490fd5b9190811015610d5a5760051b0190565b634e487b7160e01b600052603260045260246000fd5b356001600160a01b038116810361015f5790565b9190820391821161014957565b90601f8019910116810190811067ffffffffffffffff821117610db357604052565b634e487b7160e01b600052604160045260246000fd5b3d15610e04573d9067ffffffffffffffff8211610db35760405191610df8601f8201601f191660200184610d91565b82523d6000602084013e565b606090565b15610e1057565b60405162461bcd60e51b815260206004820152600e60248201526d11195c1bdcda5d0819985a5b195960921b6044820152606490fd5b6000546001600160a01b03163303610e5a57565b63118cdaa760e01b6000523360045260246000fd5b60405163a9059cbb60e01b60208281019182526001600160a01b03909416602483015260448201949094529092600091610eac816064810161056f565b519082855af115610efe576000513d610ef557506001600160a01b0381163b155b610ed45750565b635274afe760e01b60009081526001600160a01b0391909116600452602490fd5b60011415610ecd565b6040513d6000823e3d90fdfea26469706673582212207cfba2de6e678aa135fa8c67ce6d17db49fb8a383cdbf8c8df3c4d87c1dc5d0264736f6c634300081c0033",
  "linkReferences": {},
  "deployedLinkReferences": {}
}