{
  "_format": "hh-sol-artifact-1",
  "contractName": "BalanceDeltaLibrary",
  "sourceName": "@uniswap/v4-core/src/types/BalanceDelta.sol",
  "abi": [
    {
      "inputs": [],
      "name": "ZERO_DELTA",
      "outputs": [
        {
          "internalType": "BalanceDelta",
          "name": "",
          "type": "int256"
        }
      ],
      "stateMutability": "view",
      "type": "function"
    }
  ],
  "bytecode": "0x6080806040523460175760759081601d823930815050f35b600080fdfe6080806040526004361015601257600080fd5b60003560e01c6391cb466914602657600080fd5b6000366003190112603a5780600060209252f35b600080fdfea26469706673582212206184b7c909641644070df4aa128511a040d7e851cc835fe333ab478027505ed664736f6c634300081c0033",
  "linkReferences": {},
  "deployedLinkReferences": {}
}