{
  "_format": "hh-sol-artifact-1",
  "contractName": "StorageRegistry",
  "sourceName": "contracts/StorageRegistry.sol",
  "abi": [
    {
      "inputs": [
        {
          "internalType": "address",
          "name": "_idRegistry",
          "type": "address"
        },
        {
          "internalType": "uint256",
          "name": "_pricePerUnit",
          "type": "uint256"
        },
        {
          "internalType": "bool",
          "name": "_testnetMode",
          "type": "bool"
        }
      ],
      "stateMutability": "nonpayable",
      "type": "constructor"
    },
    {
      "anonymous": false,
      "inputs": [
        {
          "indexed": false,
          "internalType": "uint256",
          "name": "oldPrice",
          "type": "uint256"
        },
        {
          "indexed": false,
          "internalType": "uint256",
          "name": "newPrice",
          "type": "uint256"
        }
      ],
      "name": "PriceUpdated",
      "type": "event"
    },
    {
      "anonymous": false,
      "inputs": [
        {
          "indexed": true,
          "internalType": "uint256",
          "name": "fid",
          "type": "uint256"
        },
        {
          "indexed": false,
          "internalType": "uint256",
          "name": "units",
          "type": "uint256"
        },
        {
          "indexed": false,
          "internalType": "uint256",
          "name": "totalCost",
          "type": "uint256"
        }
      ],
      "name": "StorageRented",
      "type": "event"
    },
    {
      "anonymous": false,
      "inputs": [
        {
          "indexed": false,
          "internalType": "bool",
          "name": "enabled",
          "type": "bool"
        }
      ],
      "name": "TestnetModeUpdated",
      "type": "event"
    },
    {
      "inputs": [],
      "name": "getPrice",
      "outputs": [
        {
          "internalType": "uint256",
          "name": "",
          "type": "uint256"
        }
      ],
      "stateMutability": "view",
      "type": "function"
    },
    {
      "inputs": [
        {
          "internalType": "uint256",
          "name": "fid",
          "type": "uint256"
        }
      ],
      "name": "getStorageUnits",
      "outputs": [
        {
          "internalType": "uint256",
          "name": "",
          "type": "uint256"
        }
      ],
      "stateMutability": "view",
      "type": "function"
    },
    {
      "inputs": [],
      "name": "idRegistry",
      "outputs": [
        {
          "internalType": "contract IdRegistry",
          "name": "",
          "type": "address"
        }
      ],
      "stateMutability": "view",
      "type": "function"
    },
    {
      "inputs": [],
      "name": "owner",
      "outputs": [
        {
          "internalType": "address",
          "name": "",
          "type": "address"
        }
      ],
      "stateMutability": "view",
      "type": "function"
    },
    {
      "inputs": [],
      "name": "pricePerUnit",
      "outputs": [
        {
          "internalType": "uint256",
          "name": "",
          "type": "uint256"
        }
      ],
      "stateMutability": "view",
      "type": "function"
    },
    {
      "inputs": [
        {
          "internalType": "uint256",
          "name": "fid",
          "type": "uint256"
        },
        {
          "internalType": "uint256",
          "name": "units",
          "type": "uint256"
        }
      ],
      "name": "rent",
      "outputs": [],
      "stateMutability": "payable",
      "type": "function"
    },
    {
      "inputs": [
        {
          "internalType": "uint256",
          "name": "newPrice",
          "type": "uint256"
        }
      ],
      "name": "setPrice",
      "outputs": [],
      "stateMutability": "nonpayable",
      "type": "function"
    },
    {
      "inputs": [
        {
          "internalType": "bool",
          "name": "enabled",
          "type": "bool"
        }
      ],
      "name": "setTestnetMode",
      "outputs": [],
      "stateMutability": "nonpayable",
      "type": "function"
    },
    {
      "inputs": [
        {
          "internalType": "uint256",
          "name": "",
          "type": "uint256"
        }
      ],
      "name": "storageUnitsOf",
      "outputs": [
        {
          "internalType": "uint256",
          "name": "",
          "type": "uint256"
        }
      ],
      "stateMutability": "view",
      "type": "function"
    },
    {
      "inputs": [],
      "name": "testnetMode",
      "outputs": [
        {
          "internalType": "bool",
          "name": "",
          "type": "bool"
        }
      ],
      "stateMutability": "view",
      "type": "function"
    },
    {
      "inputs": [],
      "name": "withdraw",
      "outputs": [],
      "stateMutability": "nonpayable",
      "type": "function"
    }
  ],
  "bytecode": "0x6080346100f757601f61073c38819003918201601f19168301916001600160401b038311848410176100fc578084926060946040528339810103126100f75780516001600160a01b03811691908290036100f75760406020820151910151918215158093036100f75780156100bd57600080546001600160a01b031916919091179055600255600380546001600160a81b03191660ff92909216919091173360081b610100600160a81b031617905560405161062990816101138239f35b60405162461bcd60e51b8152602060048201526012602482015271496e76616c6964204964526567697374727960701b6044820152606490fd5b600080fd5b634e487b7160e01b600052604160045260246000fdfe608080604052600436101561001357600080fd5b60003560e01c9081630aa13b8c1461055f575080632f09c146146104ec5780633ccfd60b146104a2578063783a112b146101ce5780638da5cb5b146101a15780638db392251461009857806391b7f5ed1461013d57806398d5fdca1461010a578063bcf17672146100e7578063e66825c3146100c95763edcce3d01461009857600080fd5b346100c45760203660031901126100c45760043560005260016020526020604060002054604051908152f35b600080fd5b346100c45760003660031901126100c4576020600254604051908152f35b346100c45760003660031901126100c457602060ff600354166040519015158152f35b346100c45760003660031901126100c45760035460ff161561013357602060005b604051908152f35b602060025461012b565b346100c45760203660031901126100c4577f945c1c4e99aa89f648fbfe3df471b916f719e16d960fcec0737d4d56bd696838604060043561018c60018060a01b0360035460081c163314610583565b600254908060025582519182526020820152a1005b346100c45760003660031901126100c45760035460405160089190911c6001600160a01b03168152602090f35b60403660031901126100c45760043560243560018060a01b036000541660405163030d0e4d60e61b8152836004820152602081602481855afa9081156102e657600091610467575b501561042d576020602491604051928380926331a9108f60e11b82528760048301525afa9081156102e6576000916103e4575b50336001600160a01b03909116036103af57801561037a57600060ff6003541615610311575b82600052600160205260406000208054908382018092116102fb57558034116102c5575b7fd5463eefe0016fcba3f9e7f25e9d0ec5c6c74000f61602089376213870f278af9160409182519182526020820152a2005b8034033481116102fb57600080808093818634146102f2575b3390f1610293575b6040513d6000823e3d90fd5b506108fc6102de565b634e487b7160e01b600052601160045260246000fd5b60025490818302918383040361036657508034101561026f5760405162461bcd60e51b8152602060048201526014602482015273125b9cdd59999a58da595b9d081c185e5b595b9d60621b6044820152606490fd5b634e487b7160e01b81526011600452602490fd5b60405162461bcd60e51b815260206004820152600d60248201526c496e76616c696420756e69747360981b6044820152606490fd5b60405162461bcd60e51b815260206004820152600d60248201526c2737ba102324a21037bbb732b960991b6044820152606490fd5b6020813d602011610425575b816103fd602093836105bb565b810103126104215751906001600160a01b038216820361041e575083610249565b80fd5b5080fd5b3d91506103f0565b60405162461bcd60e51b815260206004820152601260248201527111925108191bd95cc81b9bdd08195e1a5cdd60721b6044820152606490fd5b6020813d60201161049a575b81610480602093836105bb565b81010312610421575190811515820361041e575084610216565b3d9150610473565b346100c45760003660031901126100c457600080808060018060a01b0360035460081c166104d1813314610583565b47908282156104e3575bf1156102e657005b506108fc6104db565b346100c45760203660031901126100c4576004358015158091036100c4576003547f48e7bf29001de4881e0ba2fd384c1ca5e14297a82d76636b396f83433315c3c99160209161054a33600883901c6001600160a01b031614610583565b60ff191660ff821617600355604051908152a1005b346100c45760003660031901126100c4576000546001600160a01b03168152602090f35b1561058a57565b60405162461bcd60e51b81526020600482015260096024820152682737ba1037bbb732b960b91b6044820152606490fd5b90601f8019910116810190811067ffffffffffffffff8211176105dd57604052565b634e487b7160e01b600052604160045260246000fdfea264697066735822122091bebd3788519ad9fab3c5115ffe7fcd6b9d82c96fb854d98daf4d1581b5e25a64736f6c634300081c0033",
  "linkReferences": {},
  "deployedLinkReferences": {}
}