{
  "_format": "hh-sol-artifact-1",
  "contractName": "DaemonFactory",
  "sourceName": "contracts/DaemonFactory.sol",
  "abi": [
    {
      "inputs": [],
      "stateMutability": "nonpayable",
      "type": "constructor"
    },
    {
      "inputs": [
        {
          "internalType": "address",
          "name": "target",
          "type": "address"
        }
      ],
      "name": "AddressEmptyCode",
      "type": "error"
    },
    {
      "inputs": [
        {
          "internalType": "address",
          "name": "implementation",
          "type": "address"
        }
      ],
      "name": "ERC1967InvalidImplementation",
      "type": "error"
    },
    {
      "inputs": [],
      "name": "ERC1967NonPayable",
      "type": "error"
    },
    {
      "inputs": [],
      "name": "FailedCall",
      "type": "error"
    },
    {
      "inputs": [],
      "name": "InvalidInitialization",
      "type": "error"
    },
    {
      "inputs": [],
      "name": "NotInitializing",
      "type": "error"
    },
    {
      "inputs": [
        {
          "internalType": "address",
          "name": "owner",
          "type": "address"
        }
      ],
      "name": "OwnableInvalidOwner",
      "type": "error"
    },
    {
      "inputs": [
        {
          "internalType": "address",
          "name": "account",
          "type": "address"
        }
      ],
      "name": "OwnableUnauthorizedAccount",
      "type": "error"
    },
    {
      "inputs": [],
      "name": "ReentrancyGuardReentrantCall",
      "type": "error"
    },
    {
      "inputs": [],
      "name": "UUPSUnauthorizedCallContext",
      "type": "error"
    },
    {
      "inputs": [
        {
          "internalType": "bytes32",
          "name": "slot",
          "type": "bytes32"
        }
      ],
      "name": "UUPSUnsupportedProxiableUUID",
      "type": "error"
    },
    {
      "anonymous": false,
      "inputs": [
        {
          "indexed": true,
          "internalType": "address",
          "name": "oldBaseToken",
          "type": "address"
        },
        {
          "indexed": true,
          "internalType": "address",
          "name": "newBaseToken",
          "type": "address"
        }
      ],
      "name": "BaseTokenUpdated",
      "type": "event"
    },
    {
      "anonymous": false,
      "inputs": [
        {
          "indexed": true,
          "internalType": "address",
          "name": "oldBootstrap",
          "type": "address"
        },
        {
          "indexed": true,
          "internalType": "address",
          "name": "newBootstrap",
          "type": "address"
        }
      ],
      "name": "BootstrapUpdated",
      "type": "event"
    },
    {
      "anonymous": false,
      "inputs": [
        {
          "indexed": true,
          "internalType": "address",
          "name": "oldHook",
          "type": "address"
        },
        {
          "indexed": true,
          "internalType": "address",
          "name": "newHook",
          "type": "address"
        }
      ],
      "name": "HookUpdated",
      "type": "event"
    },
    {
      "anonymous": false,
      "inputs": [
        {
          "indexed": false,
          "internalType": "uint64",
          "name": "version",
          "type": "uint64"
        }
      ],
      "name": "Initialized",
      "type": "event"
    },
    {
      "anonymous": false,
      "inputs": [
        {
          "indexed": true,
          "internalType": "address",
          "name": "previousOwner",
          "type": "address"
        },
        {
          "indexed": true,
          "internalType": "address",
          "name": "newOwner",
          "type": "address"
        }
      ],
      "name": "OwnershipTransferred",
      "type": "event"
    },
    {
      "anonymous": false,
      "inputs": [
        {
          "indexed": true,
          "internalType": "address",
          "name": "token",
          "type": "address"
        },
        {
          "indexed": false,
          "internalType": "uint256",
          "name": "totalContributed",
          "type": "uint256"
        }
      ],
      "name": "TGECompleted",
      "type": "event"
    },
    {
      "anonymous": false,
      "inputs": [
        {
          "indexed": true,
          "internalType": "address",
          "name": "token",
          "type": "address"
        },
        {
          "indexed": true,
          "internalType": "address",
          "name": "contributor",
          "type": "address"
        },
        {
          "indexed": false,
          "internalType": "uint256",
          "name": "amount",
          "type": "uint256"
        }
      ],
      "name": "TGEContribution",
      "type": "event"
    },
    {
      "anonymous": false,
      "inputs": [
        {
          "indexed": true,
          "internalType": "address",
          "name": "token",
          "type": "address"
        },
        {
          "indexed": false,
          "internalType": "uint256",
          "name": "startTime",
          "type": "uint256"
        },
        {
          "indexed": false,
          "internalType": "uint256",
          "name": "endTime",
          "type": "uint256"
        }
      ],
      "name": "TGEStarted",
      "type": "event"
    },
    {
      "anonymous": false,
      "inputs": [
        {
          "indexed": true,
          "internalType": "address",
          "name": "token",
          "type": "address"
        },
        {
          "indexed": true,
          "internalType": "address",
          "name": "admin",
          "type": "address"
        },
        {
          "indexed": true,
          "internalType": "address",
          "name": "creator",
          "type": "address"
        },
        {
          "indexed": false,
          "internalType": "address",
          "name": "pairedToken",
          "type": "address"
        },
        {
          "indexed": false,
          "internalType": "int24",
          "name": "tickIfToken0IsFey",
          "type": "int24"
        }
      ],
      "name": "TokenCreated",
      "type": "event"
    },
    {
      "anonymous": false,
      "inputs": [
        {
          "indexed": true,
          "internalType": "address",
          "name": "implementation",
          "type": "address"
        }
      ],
      "name": "Upgraded",
      "type": "event"
    },
    {
      "inputs": [],
      "name": "UPGRADE_INTERFACE_VERSION",
      "outputs": [
        {
          "internalType": "string",
          "name": "",
          "type": "string"
        }
      ],
      "stateMutability": "view",
      "type": "function"
    },
    {
      "inputs": [],
      "name": "WETH",
      "outputs": [
        {
          "internalType": "address",
          "name": "",
          "type": "address"
        }
      ],
      "stateMutability": "view",
      "type": "function"
    },
    {
      "inputs": [],
      "name": "baseToken",
      "outputs": [
        {
          "internalType": "address",
          "name": "",
          "type": "address"
        }
      ],
      "stateMutability": "view",
      "type": "function"
    },
    {
      "inputs": [],
      "name": "bootstrap",
      "outputs": [
        {
          "internalType": "address",
          "name": "",
          "type": "address"
        }
      ],
      "stateMutability": "view",
      "type": "function"
    },
    {
      "inputs": [
        {
          "internalType": "address",
          "name": "token",
          "type": "address"
        }
      ],
      "name": "completeTGE",
      "outputs": [],
      "stateMutability": "nonpayable",
      "type": "function"
    },
    {
      "inputs": [
        {
          "internalType": "address",
          "name": "token",
          "type": "address"
        }
      ],
      "name": "contributeToTGE",
      "outputs": [],
      "stateMutability": "payable",
      "type": "function"
    },
    {
      "inputs": [
        {
          "internalType": "bytes32",
          "name": "salt",
          "type": "bytes32"
        },
        {
          "internalType": "bytes",
          "name": "initCode",
          "type": "bytes"
        },
        {
          "internalType": "address",
          "name": "tokenAdmin",
          "type": "address"
        },
        {
          "internalType": "address",
          "name": "pairedToken",
          "type": "address"
        },
        {
          "internalType": "int24",
          "name": "tickIfToken0IsFey",
          "type": "int24"
        },
        {
          "internalType": "bool",
          "name": "enableTGE",
          "type": "bool"
        },
        {
          "internalType": "uint256",
          "name": "tgeDuration",
          "type": "uint256"
        }
      ],
      "name": "deployToken",
      "outputs": [
        {
          "internalType": "address",
          "name": "token",
          "type": "address"
        }
      ],
      "stateMutability": "payable",
      "type": "function"
    },
    {
      "inputs": [
        {
          "internalType": "address",
          "name": "",
          "type": "address"
        }
      ],
      "name": "deployedTokens",
      "outputs": [
        {
          "internalType": "bool",
          "name": "",
          "type": "bool"
        }
      ],
      "stateMutability": "view",
      "type": "function"
    },
    {
      "inputs": [],
      "name": "feeLocker",
      "outputs": [
        {
          "internalType": "address",
          "name": "",
          "type": "address"
        }
      ],
      "stateMutability": "view",
      "type": "function"
    },
    {
      "inputs": [
        {
          "internalType": "address",
          "name": "token",
          "type": "address"
        },
        {
          "internalType": "address",
          "name": "contributor",
          "type": "address"
        }
      ],
      "name": "getTGEContribution",
      "outputs": [
        {
          "internalType": "uint256",
          "name": "",
          "type": "uint256"
        }
      ],
      "stateMutability": "view",
      "type": "function"
    },
    {
      "inputs": [
        {
          "internalType": "address",
          "name": "token",
          "type": "address"
        }
      ],
      "name": "getTGETotalContributed",
      "outputs": [
        {
          "internalType": "uint256",
          "name": "",
          "type": "uint256"
        }
      ],
      "stateMutability": "view",
      "type": "function"
    },
    {
      "inputs": [],
      "name": "hook",
      "outputs": [
        {
          "internalType": "address",
          "name": "",
          "type": "address"
        }
      ],
      "stateMutability": "view",
      "type": "function"
    },
    {
      "inputs": [
        {
          "internalType": "address",
          "name": "_baseToken",
          "type": "address"
        },
        {
          "internalType": "address",
          "name": "_hook",
          "type": "address"
        },
        {
          "internalType": "address",
          "name": "_bootstrap",
          "type": "address"
        },
        {
          "internalType": "address",
          "name": "_feeLocker",
          "type": "address"
        },
        {
          "internalType": "address",
          "name": "_teamFeeRecipient",
          "type": "address"
        },
        {
          "internalType": "address",
          "name": "_weth",
          "type": "address"
        },
        {
          "internalType": "address",
          "name": "_owner",
          "type": "address"
        }
      ],
      "name": "initialize",
      "outputs": [],
      "stateMutability": "nonpayable",
      "type": "function"
    },
    {
      "inputs": [
        {
          "internalType": "address",
          "name": "token",
          "type": "address"
        }
      ],
      "name": "isTGEActive",
      "outputs": [
        {
          "internalType": "bool",
          "name": "",
          "type": "bool"
        }
      ],
      "stateMutability": "view",
      "type": "function"
    },
    {
      "inputs": [],
      "name": "owner",
      "outputs": [
        {
          "internalType": "address",
          "name": "",
          "type": "address"
        }
      ],
      "stateMutability": "view",
      "type": "function"
    },
    {
      "inputs": [
        {
          "internalType": "bytes32",
          "name": "salt",
          "type": "bytes32"
        },
        {
          "internalType": "bytes32",
          "name": "initCodeHash",
          "type": "bytes32"
        }
      ],
      "name": "predictTokenAddress",
      "outputs": [
        {
          "internalType": "address",
          "name": "",
          "type": "address"
        }
      ],
      "stateMutability": "view",
      "type": "function"
    },
    {
      "inputs": [],
      "name": "proxiableUUID",
      "outputs": [
        {
          "internalType": "bytes32",
          "name": "",
          "type": "bytes32"
        }
      ],
      "stateMutability": "view",
      "type": "function"
    },
    {
      "inputs": [],
      "name": "renounceOwnership",
      "outputs": [],
      "stateMutability": "nonpayable",
      "type": "function"
    },
    {
      "inputs": [
        {
          "internalType": "bytes32",
          "name": "",
          "type": "bytes32"
        }
      ],
      "name": "saltToToken",
      "outputs": [
        {
          "internalType": "address",
          "name": "",
          "type": "address"
        }
      ],
      "stateMutability": "view",
      "type": "function"
    },
    {
      "inputs": [
        {
          "internalType": "address",
          "name": "_baseToken",
          "type": "address"
        }
      ],
      "name": "setBaseToken",
      "outputs": [],
      "stateMutability": "nonpayable",
      "type": "function"
    },
    {
      "inputs": [
        {
          "internalType": "address",
          "name": "_bootstrap",
          "type": "address"
        }
      ],
      "name": "setBootstrap",
      "outputs": [],
      "stateMutability": "nonpayable",
      "type": "function"
    },
    {
      "inputs": [
        {
          "internalType": "address",
          "name": "_hook",
          "type": "address"
        }
      ],
      "name": "setHook",
      "outputs": [],
      "stateMutability": "nonpayable",
      "type": "function"
    },
    {
      "inputs": [],
      "name": "teamFeeRecipient",
      "outputs": [
        {
          "internalType": "address",
          "name": "",
          "type": "address"
        }
      ],
      "stateMutability": "view",
      "type": "function"
    },
    {
      "inputs": [
        {
          "internalType": "address",
          "name": "",
          "type": "address"
        },
        {
          "internalType": "address",
          "name": "",
          "type": "address"
        }
      ],
      "name": "tgeContributions",
      "outputs": [
        {
          "internalType": "uint256",
          "name": "",
          "type": "uint256"
        }
      ],
      "stateMutability": "view",
      "type": "function"
    },
    {
      "inputs": [
        {
          "internalType": "address",
          "name": "",
          "type": "address"
        }
      ],
      "name": "tgeTotalContributed",
      "outputs": [
        {
          "internalType": "uint256",
          "name": "",
          "type": "uint256"
        }
      ],
      "stateMutability": "view",
      "type": "function"
    },
    {
      "inputs": [
        {
          "internalType": "address",
          "name": "",
          "type": "address"
        }
      ],
      "name": "tokenTGEConfig",
      "outputs": [
        {
          "internalType": "bool",
          "name": "enabled",
          "type": "bool"
        },
        {
          "internalType": "uint256",
          "name": "startTime",
          "type": "uint256"
        },
        {
          "internalType": "uint256",
          "name": "endTime",
          "type": "uint256"
        },
        {
          "internalType": "uint256",
          "name": "minContribution",
          "type": "uint256"
        },
        {
          "internalType": "uint256",
          "name": "maxContribution",
          "type": "uint256"
        },
        {
          "internalType": "bool",
          "name": "completed",
          "type": "bool"
        }
      ],
      "stateMutability": "view",
      "type": "function"
    },
    {
      "inputs": [
        {
          "internalType": "address",
          "name": "newOwner",
          "type": "address"
        }
      ],
      "name": "transferOwnership",
      "outputs": [],
      "stateMutability": "nonpayable",
      "type": "function"
    },
    {
      "inputs": [
        {
          "internalType": "address",
          "name": "newImplementation",
          "type": "address"
        },
        {
          "internalType": "bytes",
          "name": "data",
          "type": "bytes"
        }
      ],
      "name": "upgradeToAndCall",
      "outputs": [],
      "stateMutability": "payable",
      "type": "function"
    },
    {
      "inputs": [
        {
          "internalType": "address",
          "name": "token",
          "type": "address"
        }
      ],
      "name": "wouldBeToken0",
      "outputs": [
        {
          "internalType": "bool",
          "name": "",
          "type": "bool"
        }
      ],
      "stateMutability": "view",
      "type": "function"
    }
  ],
  "bytecode": "0x60a080604052346100ea57306080527ff0c57e16840df040f15088dc2f81fe391c3923bec73e23a9662efc9c229c6a005460ff8160401c166100d9576002600160401b03196001600160401b03821601610073575b6040516120fc90816100f082396080518181816107fb0152610ab50152f35b6001600160401b0319166001600160401b039081177ff0c57e16840df040f15088dc2f81fe391c3923bec73e23a9662efc9c229c6a005581527fc7f505b2f371ae2175ee4913f4499e1f2633a7b5936321eed1cdaeb6115181d290602090a13880610054565b63f92ee8a960e01b60005260046000fd5b600080fdfe6080604052600436101561001257600080fd5b60003560e01c80630230b22d146101dd57806311b408391461017457806316bb6c13146101d85780631d541a06146101d3578063228871c5146101ce57806335876476146101c95780633dfd3873146101c45780634986b626146101bf5780634f1ef286146101ba5780634f77862d1461015b57806350196f71146101b557806352d1902d146101b057806360f62caa146101ab57806370e9d244146101a6578063715018a6146101a15780637f5a7c7b1461019c5780638da5cb5b1461019757806393d0aead14610192578063a7f371d41461018d578063ad3cb1cc14610188578063ad5c464814610183578063b0fc46be1461017e578063c55dae6314610179578063da562bd714610174578063e7bfaca51461016f578063f2fde38b1461016a578063f6e1e2f914610165578063fb969b0a146101605763fe0105211461015b57600080fd5b61091c565b611104565b6110c8565b61109b565b610ffc565b61026b565b610fac565b610ec9565b610ea0565b610e59565b610cbd565b610c7b565b610c45565b610c1c565b610bb2565b610b89565b610afb565b610aa2565b610959565b6107a7565b61066f565b6105f2565b610422565b6103f9565b61038a565b6102b0565b3461021157602036600319011261021157600435600052600a602052602060018060a01b0360406000205416604051908152f35b600080fd5b6001600160a01b0381160361021157565b6044359061023482610216565b565b6064359061023482610216565b60409060031901126102115760043561025b81610216565b9060243561026881610216565b90565b346102115760206102a761027e36610243565b6001600160a01b0391821660009081526007855260408082209290931681526020919091522090565b54604051908152f35b34610211576020366003190112610211576004356102cd81610216565b600080516020612047833981519152546001600160a01b031633148015610376575b6102f89061112d565b6001600160a01b0381169061030e821515611179565b6000546001600160a01b0316906103469061032983156111b7565b60018060a01b03166001600160601b0360a01b6000541617600055565b6001600160a01b03167f965ad029bee14e05930cf7e858ccfcc3459fce8017b37db95fb01929d74f3484600080a3005b506001546001600160a01b031633146102ef565b34610211576040366003190112610211576103f56004356024359060405191602083019160ff60f81b83523060601b602185015260358401526055830152605582526103d7607583610723565b905190206040516001600160a01b0390911681529081906020820190565b0390f35b34610211576000366003190112610211576004546040516001600160a01b039091168152602090f35b346102115760e03660031901126102115760043561043f81610216565b6024359061044c82610216565b60443561045881610216565b60643561046481610216565b60843561047081610216565b60a4359161047d83610216565b60c4359361048a85610216565b6000805160206120a7833981519152549667ffffffffffffffff6104c760ff60408b901c16156104b9565b1590565b9967ffffffffffffffff1690565b16801590816105ea575b60011490816105e0575b1590816105d7575b506105c6576105299688610520600167ffffffffffffffff196000805160206120a78339815191525416176000805160206120a783398151915255565b61058a576112b7565b61052f57005b61055b60ff60401b196000805160206120a783398151915254166000805160206120a783398151915255565b604051600181527fc7f505b2f371ae2175ee4913f4499e1f2633a7b5936321eed1cdaeb6115181d290602090a1005b6105c16801000000000000000060ff60401b196000805160206120a78339815191525416176000805160206120a783398151915255565b6112b7565b63f92ee8a960e01b60005260046000fd5b905015386104e3565b303b1591506104db565b8991506104d1565b346102115760203660031901126102115760043561060f81610216565b610617611e4d565b6001600160a01b031661062b811515611179565b600280546001600160a01b0319811683179091556001600160a01b03167f28f7fb7e7a8b1239a2210fff0089ce39da0362e2dd2eecaa013a8996a37a2279600080a3005b346102115760203660031901126102115760043561068c81610216565b610694611e4d565b6001600160a01b03166106a8811515611179565b600180546001600160a01b0319811683179091556001600160a01b03167f15a87f1bfba132f224da20f436db1aff35480db41f5f07ad3c14df9cc37e4ec4600080a3005b634e487b7160e01b600052604160045260246000fd5b60c0810190811067ffffffffffffffff82111761071e57604052565b6106ec565b90601f8019910116810190811067ffffffffffffffff82111761071e57604052565b6040519061023460c083610723565b67ffffffffffffffff811161071e57601f01601f191660200190565b92919261077c82610754565b9161078a6040519384610723565b829481845281830111610211578281602093846000960137010152565b6040366003190112610211576004356107bf81610216565b60243567ffffffffffffffff81116102115736602382011215610211576107f0903690602481600401359101610770565b906001600160a01b037f0000000000000000000000000000000000000000000000000000000000000000163081149081156108f9575b506108e857610833611e4d565b6040516352d1902d60e01b8152916020836004816001600160a01b0386165afa600093816108b7575b5061087f57634c9c8ce360e01b6000526001600160a01b03821660045260246000fd5b9060008051602061206783398151915283036108a15761089f9250611efc565b005b632a87526960e21b600052600483905260246000fd5b6108da91945060203d6020116108e1575b6108d28183610723565b810190611e83565b923861085c565b503d6108c8565b63703e46dd60e11b60005260046000fd5b600080516020612067833981519152546001600160a01b03161415905038610826565b346102115760203660031901126102115760043561093981610216565b60018060a01b031660005260086020526020604060002054604051908152f35b60203660031901126102115760043561097181610216565b610979611e92565b6001600160a01b03811660009081526006602052604090206109fe906004906109ab6109a6825460ff1690565b611422565b6109c46109bf6104b5600584015460ff1690565b611460565b6109d4600182015442101561149c565b6109e460028201544211156114da565b6109f46003820154341015611512565b0154341115611557565b6001600160a01b03811660009081526007602090815260408083203384529091529020610a2c34825461159c565b90556001600160a01b0381166000908152600860205260409020610a5134825461159c565b905560405134815233916001600160a01b0316907fe565e0eecc3db6e45a81b973046c301741c6d01af20bd87df5acea26d6a5456690602090a361089f600160008051602061208783398151915255565b34610211576000366003190112610211577f00000000000000000000000000000000000000000000000000000000000000006001600160a01b031630036108e85760206040516000805160206120678339815191528152f35b3461021157602036600319011261021157600435610b1881610216565b60018060a01b03166000526006602052604060002060ff8154166103f5600183015492600281015490600381015460ff6005600484015493015416926040519687968794919260a0949197969360c08701981515875260208701526040860152606085015260808401521515910152565b34610211576000366003190112610211576003546040516001600160a01b039091168152602090f35b3461021157600036600319011261021157610bcb611e4d565b60008051602061204783398151915280546001600160a01b031981169091556000906001600160a01b03167f8be0079c531659141344cd1fd0a4f28419497f9722a3daafe3b4186f6b6457e08280a3005b34610211576000366003190112610211576002546040516001600160a01b039091168152602090f35b3461021157600036600319011261021157600080516020612047833981519152546040516001600160a01b039091168152602090f35b3461021157602036600319011261021157600435610c9881610216565b60018060a01b03166000526009602052602060ff604060002054166040519015158152f35b3461021157602036600319011261021157600435610cda81610216565b6001600160a01b0381166000908152600660205260409020610d7290610d046109a6825460ff1690565b60026005820191610d21610d1c6104b5855460ff1690565b6115bf565b600154610d3e906001600160a01b03165b6001600160a01b031690565b33148015610de8575b610d5090611603565b01544210801590610db8575b610d659061164f565b805460ff19166001179055565b6001600160a01b03166000818152600860209081526040918290205491519182527f625941ec5076357f8925e84f1f3de540009b8636e419f4b55a10f436ff0c40a091a2005b5060008051602061204783398151915254610d6590610ddf906001600160a01b0316610d32565b33149050610d5c565b5060008051602061204783398151915254610d5090610e0f906001600160a01b0316610d32565b33149050610d47565b919082519283825260005b848110610e44575050826000602080949584010152601f8019910116010190565b80602080928401015182828601015201610e23565b34610211576000366003190112610211576103f56040805190610e7c8183610723565b60058252640352e302e360dc1b602083015251918291602083526020830190610e18565b34610211576000366003190112610211576005546040516001600160a01b039091168152602090f35b3461021157602036600319011261021157600435610ee681610216565b60018060a01b031660005260066020526103f56040600020604051610f0a81610702565b60ff8254161515815260018201549160208201928352610f6260ff600560028401549360408601948552600381015460608701526004810154608087015201541692610f5c60a0820194859015159052565b51151590565b9283610fa0575b5082610f94575b5081610f8a575b5060405190151581529081906020820190565b5115905038610f77565b51421115915038610f70565b51421015925038610f69565b34610211576000366003190112610211576000546040516001600160a01b039091168152602090f35b8060020b0361021157565b6084359061023482610fd5565b60a43590811515820361021157565b60e03660031901126102115760043560243567ffffffffffffffff811161021157366023820112156102115780600401359067ffffffffffffffff8211610211573660248383010111610211576103f59261108192611059610227565b611061610236565b9061106a610fe0565b92611073610fed565b94602460c43597019061168f565b6040516001600160a01b0390911681529081906020820190565b346102115760203660031901126102115761089f6004356110bb81610216565b6110c3611e4d565b611dd7565b346102115760203660031901126102115760206004356110e781610216565b6000546040516001600160a01b0391821692909116919091108152f35b34610211576000366003190112610211576001546040516001600160a01b039091168152602090f35b1561113457565b60405162461bcd60e51b815260206004820152601760248201527f4f6e6c79206f776e6572206f7220626f6f7473747261700000000000000000006044820152606490fd5b1561118057565b60405162461bcd60e51b815260206004820152600f60248201526e496e76616c6964206164647265737360881b6044820152606490fd5b156111be57565b60405162461bcd60e51b815260206004820152601560248201527410985cd9551bdad95b88185b1c9958591e481cd95d605a1b6044820152606490fd5b1561120257565b60405162461bcd60e51b81526020600482015260116024820152700496e76616c696420626f6f74737472617607c1b6044820152606490fd5b1561124257565b60405162461bcd60e51b815260206004820152601260248201527124b73b30b634b2103332b2903637b1b5b2b960711b6044820152606490fd5b1561128357565b60405162461bcd60e51b815260206004820152600c60248201526b092dcecc2d8d2c840ae8aa8960a31b6044820152606490fd5b91939290956112d0906112c8611ece565b6110c3611ece565b6112d8611ece565b6112e0611ece565b6001600080516020612087833981519152556112fa611ece565b6001600160a01b038616156113ee57610234956113d1946113b4936113979261137a9161135d906113356001600160a01b03861615156111fb565b6113496001600160a01b038816151561123b565b6103296001600160a01b038c16151561127c565b60018060a01b03166001600160601b0360a01b6002541617600255565b60018060a01b03166001600160601b0360a01b6001541617600155565b60018060a01b03166001600160601b0360a01b6003541617600355565b60018060a01b03166001600160601b0360a01b6004541617600455565b60018060a01b03166001600160601b0360a01b6005541617600555565b60405162461bcd60e51b815260206004820152600c60248201526b496e76616c696420686f6f6b60a01b6044820152606490fd5b1561142957565b60405162461bcd60e51b815260206004820152600f60248201526e1511d1481b9bdd08195b98589b1959608a1b6044820152606490fd5b1561146757565b60405162461bcd60e51b815260206004820152600d60248201526c1511d14818dbdb5c1b195d1959609a1b6044820152606490fd5b156114a357565b60405162461bcd60e51b815260206004820152600f60248201526e1511d1481b9bdd081cdd185c9d1959608a1b6044820152606490fd5b156114e157565b60405162461bcd60e51b81526020600482015260096024820152681511d148195b99195960ba1b6044820152606490fd5b1561151957565b60405162461bcd60e51b81526020600482015260166024820152752132b637bb9036b4b71031b7b73a3934b13aba34b7b760511b6044820152606490fd5b1561155e57565b60405162461bcd60e51b815260206004820152601660248201527520b137bb329036b0bc1031b7b73a3934b13aba34b7b760511b6044820152606490fd5b919082018092116115a957565b634e487b7160e01b600052601160045260246000fd5b156115c657565b60405162461bcd60e51b81526020600482015260156024820152741511d148185b1c9958591e4818dbdb5c1b195d1959605a1b6044820152606490fd5b1561160a57565b60405162461bcd60e51b815260206004820152601760248201527f4f6e6c7920626f6f747374726170206f72206f776e65720000000000000000006044820152606490fd5b1561165657565b60405162461bcd60e51b81526020600482015260116024820152701511d1481b9bdd08195b991959081e595d607a1b6044820152606490fd5b806117ef916117556117d09a959798949996996116aa611e92565b6000546001600160a01b0316801599908a15611a225750600080516020612047833981519152546116e3906001600160a01b0316610d32565b331480156119ff575b6116f59061112d565b60055461171e9061170e906001600160a01b0316610d32565b6001600160a01b038d1614611adb565b61174e611748610d3261173b87600052600a602052604060002090565b546001600160a01b031690565b15611b27565b3691610770565b6020815191016000f5986001600160a01b038a16968a9290611778891515611b67565b156119d85760055461179f9061179890610d32906001600160a01b031681565b8910611c09565b6001600160a01b03831660009081526009602052604090206117c090610d65565b600052600a602052604060002090565b80546001600160a01b0319166001600160a01b03909216919091179055565b600254611804906001600160a01b0316610d32565b91611810831515611c55565b60408051610bb860208201819052918101919091526001600160a01b03881660608083019190915281529260a090839061184f90610d32608088610723565b8860008c611873604051998a968795869463564d49e760e01b865260048601611d22565b03925af19081156119d3577f5ea7d350734bfba2c43fcb46b9290fafbf59a4877da0479dab3400d55f4ea812946118de9487936119a6575b506118f9575b5050604080516001600160a01b03968716815260029290920b602083015233969095169490918291820190565b0390a490610234600160008051602061208783398151915255565b61199c6119848261197e8c6119796119327f5d91cf40bdf0a74066fddf7424319453aee041ba37fdf54c62c9460f76d49bc8974261159c565b9161193b610745565b60018152924260208501526040840152600060608401526000196080840152600060a084015260018060a01b03166000526006602052604060002090565b611d77565b4261159c565b60408051428152602081019290925290918291820190565b0390a283386118b1565b6119c79060a03d60a0116119cc575b6119bf8183610723565b810190611c9b565b6118ab565b503d6119b5565b611d6b565b6000546119fa906119f390610d32906001600160a01b031681565b8910611bb3565b61179f565b506001546116f590611a19906001600160a01b0316610d32565b331490506116ec565b611a4a906001600160a01b0316611a3a811515611a4f565b6001600160a01b038d1614611a8f565b61171e565b15611a5657565b60405162461bcd60e51b815260206004820152601160248201527010985cd9551bdad95b881b9bdd081cd95d607a1b6044820152606490fd5b15611a9657565b60405162461bcd60e51b815260206004820152601860248201527f4d757374207061697220776974682062617365546f6b656e00000000000000006044820152606490fd5b15611ae257565b60405162461bcd60e51b815260206004820152601d60248201527f426f6f747374726170206d7573742070616972207769746820574554480000006044820152606490fd5b15611b2e57565b60405162461bcd60e51b815260206004820152601160248201527014d85b1d08185b1c9958591e481d5cd959607a1b6044820152606490fd5b15611b6e57565b60405162461bcd60e51b815260206004820152601760248201527f546f6b656e206465706c6f796d656e74206661696c65640000000000000000006044820152606490fd5b15611bba57565b60405162461bcd60e51b815260206004820152602160248201527f546f6b656e2061646472657373206d757374206265203c2062617365546f6b656044820152603760f91b6064820152608490fd5b15611c1057565b60405162461bcd60e51b815260206004820152601c60248201527f546f6b656e2061646472657373206d757374206265203c2057455448000000006044820152606490fd5b15611c5c57565b60405162461bcd60e51b815260206004820152600c60248201526b121bdbdac81b9bdd081cd95d60a21b6044820152606490fd5b519061023482610216565b908160a0910312610211576040519060a0820182811067ffffffffffffffff82111761071e576040528051611ccf81610216565b82526020810151611cdf81610216565b6020830152604081015162ffffff8116810361021157611d1a9160809160408501526060810151611d0f81610fd5565b606085015201611c90565b608082015290565b6001600160a01b0391821681529116602082015260029190910b6040820152603c606082015260006080820181905260a082015260e060c0820181905261026892910190610e18565b6040513d6000823e3d90fd5b600560a061023493611d9881511515859060ff801983541691151516179055565b602081015160018501556040810151600285015560608101516003850155608081015160048501550151151591019060ff801983541691151516179055565b6001600160a01b03168015611e375760008051602061204783398151915280546001600160a01b0319811683179091556001600160a01b03167f8be0079c531659141344cd1fd0a4f28419497f9722a3daafe3b4186f6b6457e0600080a3565b631e4fbdf760e01b600052600060045260246000fd5b600080516020612047833981519152546001600160a01b03163303611e6e57565b63118cdaa760e01b6000523360045260246000fd5b90816020910312610211575190565b60026000805160206120878339815191525414611ebd57600260008051602061208783398151915255565b633ee5aeb560e01b60005260046000fd5b60ff6000805160206120a78339815191525460401c1615611eeb57565b631afcd79f60e31b60005260046000fd5b90813b15611f815760008051602061206783398151915280546001600160a01b0319166001600160a01b0384169081179091557fbc7cd75a20ee27fd9adebab32041f755214dbc6bffa90cc0225b39da2e5c2d3b600080a2805115611f6757611f6491611fa3565b50565b505034611f7057565b63b398979f60e01b60005260046000fd5b50634c9c8ce360e01b60009081526001600160a01b0391909116600452602490fd5b60008061026893602081519101845af43d15611fe1573d91611fc483610754565b92611fd26040519485610723565b83523d6000602085013e611fe5565b6060915b9061200b5750805115611ffa57602081519101fd5b63d6bda27560e01b60005260046000fd5b8151158061203d575b61201c575090565b639996b31560e01b60009081526001600160a01b0391909116600452602490fd5b50803b1561201456fe9016d09d72d40fdae2fd8ceac6b6234c7706214fd39c1cd1e609a0528c199300360894a13ba1a3210667c828492db98dca3e2076cc3735a920a3ca505d382bbc9b779b17422d0df92223018b32b4d1fa46e071723d6817e2486d003becc55f00f0c57e16840df040f15088dc2f81fe391c3923bec73e23a9662efc9c229c6a00a2646970667358221220911c4877bc9e661544b4208b40d90da94e2d1798abac6fd4a7770311f16c8b5864736f6c634300081c0033",
  "linkReferences": {},
  "deployedLinkReferences": {}
}