{"contracts/IdRegistry.sol":{"IdRegistry":{"abi":[{"anonymous":false,"inputs":[{"indexed":true,"internalType":"uint256","name":"fid","type":"uint256"},{"indexed":true,"internalType":"address","name":"from","type":"address"},{"indexed":true,"internalType":"address","name":"to","type":"address"}],"name":"FIDRecovered","type":"event"},{"anonymous":false,"inputs":[{"indexed":true,"internalType":"address","name":"wallet","type":"address"},{"indexed":true,"internalType":"uint256","name":"fid","type":"uint256"}],"name":"FIDRegistered","type":"event"},{"anonymous":false,"inputs":[{"indexed":true,"internalType":"uint256","name":"fid","type":"uint256"},{"indexed":true,"internalType":"address","name":"from","type":"address"},{"indexed":true,"internalType":"address","name":"to","type":"address"}],"name":"FIDTransferred","type":"event"},{"anonymous":false,"inputs":[{"indexed":true,"internalType":"uint256","name":"fid","type":"uint256"},{"indexed":true,"internalType":"address","name":"recovery","type":"address"}],"name":"RecoveryAddressSet","type":"event"},{"inputs":[{"internalType":"uint256","name":"fid","type":"uint256"}],"name":"fidExists","outputs":[{"internalType":"bool","name":"","type":"bool"}],"stateMutability":"view","type":"function"},{"inputs":[{"internalType":"address","name":"","type":"address"}],"name":"fidOf","outputs":[{"internalType":"uint256","name":"","type":"uint256"}],"stateMutability":"view","type":"function"},{"inputs":[{"internalType":"address","name":"wallet","type":"address"}],"name":"getFID","outputs":[{"internalType":"uint256","name":"","type":"uint256"}],"stateMutability":"view","type":"function"},{"inputs":[],"name":"nextFID","outputs":[{"internalType":"uint256","name":"","type":"uint256"}],"stateMutability":"view","type":"function"},{"inputs":[{"internalType":"uint256","name":"","type":"uint256"}],"name":"ownerOf","outputs":[{"internalType":"address","name":"","type":"address"}],"stateMutability":"view","type":"function"},{"inputs":[{"internalType":"uint256","name":"fid","type":"uint256"},{"internalType":"address","name":"to","type":"address"}],"name":"recover","outputs":[],"stateMutability":"nonpayable","type":"function"},{"inputs":[{"internalType":"uint256","name":"","type":"uint256"}],"name":"recoveryOf","outputs":[{"internalType":"address","name":"","type":"address"}],"stateMutability":"view","type":"function"},{"inputs":[],"name":"register","outputs":[{"internalType":"uint256","name":"","type":"uint256"}],"stateMutability":"nonpayable","type":"function"},{"inputs":[{"internalType":"address","name":"recovery","type":"address"}],"name":"setRecoveryAddress","outputs":[],"stateMutability":"nonpayable","type":"function"},{"inputs":[{"internalType":"address","name":"to","type":"address"}],"name":"transfer","outputs":[],"stateMutability":"nonpayable","type":"function"}],"evm":{"bytecode":{"linkReferences":{},"object":"60808060405234601a57600160005561064490816100208239f35b600080fdfe6080604052600436101561001257600080fd5b60003560e01c80631a695230146104615780631aa3a0081461037d57806329b59c8c1461035f57806349efe5ae146102d75780634eea48e2146101675780636352211e146101335780638db6bc29146100c3578063c3439340146100fd578063c63dc1c7146100c35763fa1a1b251461008a57600080fd5b346100be5760203660031901126100be576004356000526003602052602060018060a01b0360406000205416604051908152f35b600080fd5b346100be5760203660031901126100be576001600160a01b036100e461052e565b1660005260016020526020604060002054604051908152f35b346100be5760203660031901126100be576004356000526002602052602060018060a01b03604060002054161515604051908152f35b346100be5760203660031901126100be576004356000526002602052602060018060a01b0360406000205416604051908152f35b346100be5760403660031901126100be576024356001600160a01b03811690600435908290036100be5761019c821515610544565b6000818152600260205260409020546001600160a01b03161561029d576000818152600360205260409020546001600160a01b03163303610261578160005260016020526101ef604060002054156105c2565b600081815260026020818152604080842080546001600160a01b0316808652600184528286208690558786529185208690558585529290915281546001600160a01b031916851790915591907f54249df7d47689f184789100390a77f403cb44402958eba9867d1baa313a8fac9080a4005b60405162461bcd60e51b81526020600482015260146024820152734e6f74207265636f76657279206164647265737360601b6044820152606490fd5b60405162461bcd60e51b815260206004820152601260248201527111925108191bd95cc81b9bdd08195e1a5cdd60721b6044820152606490fd5b346100be5760203660031901126100be576102f061052e565b3360005260016020526040600020549061030b821515610582565b600082815260036020526040812080546001600160a01b0319166001600160a01b039390931692831790559091907f1c159cfd96672eca794ae8139b8b5d0d2c4363aaeddd3fa7df0a626daff3a38e9080a3005b346100be5760003660031901126100be576020600054604051908152f35b346100be5760003660031901126100be57336000526001602052604060002054610427576000546000198114610411576001808201600090815533808252602092835260408083208590558483526002845280832080546001600160a01b03191683179055519293918291907f9709d1c96fb9236cdbd052044d3e54ae0d0ff0a766306e5f2035c663be4e3fee9080a38152f35b634e487b7160e01b600052601160045260246000fd5b60405162461bcd60e51b8152602060048201526012602482015271105b1c9958591e481c9959da5cdd195c995960721b6044820152606490fd5b346100be5760203660031901126100be576001600160a01b0361048261052e565b1661048e811515610544565b3360005260016020526040600020546104a8811515610582565b8160005260016020526104c0604060002054156105c2565b33600052600160205260006040812055816000526001602052806040600020558060005260026020526040600020826bffffffffffffffffffffffff60a01b82541617905533907f1b2d0f1608e366cd734cdf069081cf5572ed11851c873b4bdbd2c4022f8a3ef5600080a4005b600435906001600160a01b03821682036100be57565b1561054b57565b60405162461bcd60e51b815260206004820152600f60248201526e496e76616c6964206164647265737360881b6044820152606490fd5b1561058957565b60405162461bcd60e51b8152602060048201526011602482015270139bc8119251081c9959da5cdd195c9959607a1b6044820152606490fd5b156105c957565b60405162461bcd60e51b815260206004820152601960248201527f526563697069656e7420616c72656164792068617320464944000000000000006044820152606490fdfea264697066735822122066f44aba1d1f802180f4e59d03b555b2384c247a1b38dff2bcb2123f9c0f7f1d64736f6c634300081c0033","opcodes":"PUSH1 0x80 DUP1 PUSH1 0x40 MSTORE CALLVALUE PUSH1 0x1A JUMPI PUSH1 0x1 PUSH1 0x0 SSTORE PUSH2 0x644 SWAP1 DUP2 PUSH2 0x20 DUP3 CODECOPY RETURN JUMPDEST PUSH1 0x0 DUP1 REVERT INVALID PUSH1 0x80 PUSH1 0x40 MSTORE PUSH1 0x4 CALLDATASIZE LT ISZERO PUSH2 0x12 JUMPI PUSH1 0x0 DUP1 REVERT JUMPDEST PUSH1 0x0 CALLDATALOAD PUSH1 0xE0 SHR DUP1 PUSH4 0x1A695230 EQ PUSH2 0x461 JUMPI DUP1 PUSH4 0x1AA3A008 EQ PUSH2 0x37D JUMPI DUP1 PUSH4 0x29B59C8C EQ PUSH2 0x35F JUMPI DUP1 PUSH4 0x49EFE5AE EQ PUSH2 0x2D7 JUMPI DUP1 PUSH4 0x4EEA48E2 EQ PUSH2 0x167 JUMPI DUP1 PUSH4 0x6352211E EQ PUSH2 0x133 JUMPI DUP1 PUSH4 0x8DB6BC29 EQ PUSH2 0xC3 JUMPI DUP1 PUSH4 0xC3439340 EQ PUSH2 0xFD JUMPI DUP1 PUSH4 0xC63DC1C7 EQ PUSH2 0xC3 JUMPI PUSH4 0xFA1A1B25 EQ PUSH2 0x8A JUMPI PUSH1 0x0 DUP1 REVERT JUMPDEST CALLVALUE PUSH2 0xBE JUMPI PUSH1 0x20 CALLDATASIZE PUSH1 0x3 NOT ADD SLT PUSH2 0xBE JUMPI PUSH1 0x4 CALLDATALOAD PUSH1 0x0 MSTORE PUSH1 0x3 PUSH1 0x20 MSTORE PUSH1 0x20 PUSH1 0x1 DUP1 PUSH1 0xA0 SHL SUB PUSH1 0x40 PUSH1 0x0 KECCAK256 SLOAD AND PUSH1 0x40 MLOAD SWAP1 DUP2 MSTORE RETURN JUMPDEST PUSH1 0x0 DUP1 REVERT JUMPDEST CALLVALUE PUSH2 0xBE JUMPI PUSH1 0x20 CALLDATASIZE PUSH1 0x3 NOT ADD SLT PUSH2 0xBE JUMPI PUSH1 0x1 PUSH1 0x1 PUSH1 0xA0 SHL SUB PUSH2 0xE4 PUSH2 0x52E JUMP JUMPDEST AND PUSH1 0x0 MSTORE PUSH1 0x1 PUSH1 0x20 MSTORE PUSH1 0x20 PUSH1 0x40 PUSH1 0x0 KECCAK256 SLOAD PUSH1 0x40 MLOAD SWAP1 DUP2 MSTORE RETURN JUMPDEST CALLVALUE PUSH2 0xBE JUMPI PUSH1 0x20 CALLDATASIZE PUSH1 0x3 NOT ADD SLT PUSH2 0xBE JUMPI PUSH1 0x4 CALLDATALOAD PUSH1 0x0 MSTORE PUSH1 0x2 PUSH1 0x20 MSTORE PUSH1 0x20 PUSH1 0x1 DUP1 PUSH1 0xA0 SHL SUB PUSH1 0x40 PUSH1 0x0 KECCAK256 SLOAD AND ISZERO ISZERO PUSH1 0x40 MLOAD SWAP1 DUP2 MSTORE RETURN JUMPDEST CALLVALUE PUSH2 0xBE JUMPI PUSH1 0x20 CALLDATASIZE PUSH1 0x3 NOT ADD SLT PUSH2 0xBE JUMPI PUSH1 0x4 CALLDATALOAD PUSH1 0x0 MSTORE PUSH1 0x2 PUSH1 0x20 MSTORE PUSH1 0x20 PUSH1 0x1 DUP1 PUSH1 0xA0 SHL SUB PUSH1 0x40 PUSH1 0x0 KECCAK256 SLOAD AND PUSH1 0x40 MLOAD SWAP1 DUP2 MSTORE RETURN JUMPDEST CALLVALUE PUSH2 0xBE JUMPI PUSH1 0x40 CALLDATASIZE PUSH1 0x3 NOT ADD SLT PUSH2 0xBE JUMPI PUSH1 0x24 CALLDATALOAD PUSH1 0x1 PUSH1 0x1 PUSH1 0xA0 SHL SUB DUP2 AND SWAP1 PUSH1 0x4 CALLDATALOAD SWAP1 DUP3 SWAP1 SUB PUSH2 0xBE JUMPI PUSH2 0x19C DUP3 ISZERO ISZERO PUSH2 0x544 JUMP JUMPDEST PUSH1 0x0 DUP2 DUP2 MSTORE PUSH1 0x2 PUSH1 0x20 MSTORE PUSH1 0x40 SWAP1 KECCAK256 SLOAD PUSH1 0x1 PUSH1 0x1 PUSH1 0xA0 SHL SUB AND ISZERO PUSH2 0x29D JUMPI PUSH1 0x0 DUP2 DUP2 MSTORE PUSH1 0x3 PUSH1 0x20 MSTORE PUSH1 0x40 SWAP1 KECCAK256 SLOAD PUSH1 0x1 PUSH1 0x1 PUSH1 0xA0 SHL SUB AND CALLER SUB PUSH2 0x261 JUMPI DUP2 PUSH1 0x0 MSTORE PUSH1 0x1 PUSH1 0x20 MSTORE PUSH2 0x1EF PUSH1 0x40 PUSH1 0x0 KECCAK256 SLOAD ISZERO PUSH2 0x5C2 JUMP JUMPDEST PUSH1 0x0 DUP2 DUP2 MSTORE PUSH1 0x2 PUSH1 0x20 DUP2 DUP2 MSTORE PUSH1 0x40 DUP1 DUP5 KECCAK256 DUP1 SLOAD PUSH1 0x1 PUSH1 0x1 PUSH1 0xA0 SHL SUB AND DUP1 DUP7 MSTORE PUSH1 0x1 DUP5 MSTORE DUP3 DUP7 KECCAK256 DUP7 SWAP1 SSTORE DUP8 DUP7 MSTORE SWAP2 DUP6 KECCAK256 DUP7 SWAP1 SSTORE DUP6 DUP6 MSTORE SWAP3 SWAP1 SWAP2 MSTORE DUP2 SLOAD PUSH1 0x1 PUSH1 0x1 PUSH1 0xA0 SHL SUB NOT AND DUP6 OR SWAP1 SWAP2 SSTORE SWAP2 SWAP1 PUSH32 0x54249DF7D47689F184789100390A77F403CB44402958EBA9867D1BAA313A8FAC SWAP1 DUP1 LOG4 STOP JUMPDEST PUSH1 0x40 MLOAD PUSH3 0x461BCD PUSH1 0xE5 SHL DUP2 MSTORE PUSH1 0x20 PUSH1 0x4 DUP3 ADD MSTORE PUSH1 0x14 PUSH1 0x24 DUP3 ADD MSTORE PUSH20 0x4E6F74207265636F766572792061646472657373 PUSH1 0x60 SHL PUSH1 0x44 DUP3 ADD MSTORE PUSH1 0x64 SWAP1 REVERT JUMPDEST PUSH1 0x40 MLOAD PUSH3 0x461BCD PUSH1 0xE5 SHL DUP2 MSTORE PUSH1 0x20 PUSH1 0x4 DUP3 ADD MSTORE PUSH1 0x12 PUSH1 0x24 DUP3 ADD MSTORE PUSH18 0x11925108191BD95CC81B9BDD08195E1A5CDD PUSH1 0x72 SHL PUSH1 0x44 DUP3 ADD MSTORE PUSH1 0x64 SWAP1 REVERT JUMPDEST CALLVALUE PUSH2 0xBE JUMPI PUSH1 0x20 CALLDATASIZE PUSH1 0x3 NOT ADD SLT PUSH2 0xBE JUMPI PUSH2 0x2F0 PUSH2 0x52E JUMP JUMPDEST CALLER PUSH1 0x0 MSTORE PUSH1 0x1 PUSH1 0x20 MSTORE PUSH1 0x40 PUSH1 0x0 KECCAK256 SLOAD SWAP1 PUSH2 0x30B DUP3 ISZERO ISZERO PUSH2 0x582 JUMP JUMPDEST PUSH1 0x0 DUP3 DUP2 MSTORE PUSH1 0x3 PUSH1 0x20 MSTORE PUSH1 0x40 DUP2 KECCAK256 DUP1 SLOAD PUSH1 0x1 PUSH1 0x1 PUSH1 0xA0 SHL SUB NOT AND PUSH1 0x1 PUSH1 0x1 PUSH1 0xA0 SHL SUB SWAP4 SWAP1 SWAP4 AND SWAP3 DUP4 OR SWAP1 SSTORE SWAP1 SWAP2 SWAP1 PUSH32 0x1C159CFD96672ECA794AE8139B8B5D0D2C4363AAEDDD3FA7DF0A626DAFF3A38E SWAP1 DUP1 LOG3 STOP JUMPDEST CALLVALUE PUSH2 0xBE JUMPI PUSH1 0x0 CALLDATASIZE PUSH1 0x3 NOT ADD SLT PUSH2 0xBE JUMPI PUSH1 0x20 PUSH1 0x0 SLOAD PUSH1 0x40 MLOAD SWAP1 DUP2 MSTORE RETURN JUMPDEST CALLVALUE PUSH2 0xBE JUMPI PUSH1 0x0 CALLDATASIZE PUSH1 0x3 NOT ADD SLT PUSH2 0xBE JUMPI CALLER PUSH1 0x0 MSTORE PUSH1 0x1 PUSH1 0x20 MSTORE PUSH1 0x40 PUSH1 0x0 KECCAK256 SLOAD PUSH2 0x427 JUMPI PUSH1 0x0 SLOAD PUSH1 0x0 NOT DUP2 EQ PUSH2 0x411 JUMPI PUSH1 0x1 DUP1 DUP3 ADD PUSH1 0x0 SWAP1 DUP2 SSTORE CALLER DUP1 DUP3 MSTORE PUSH1 0x20 SWAP3 DUP4 MSTORE PUSH1 0x40 DUP1 DUP4 KECCAK256 DUP6 SWAP1 SSTORE DUP5 DUP4 MSTORE PUSH1 0x2 DUP5 MSTORE DUP1 DUP4 KECCAK256 DUP1 SLOAD PUSH1 0x1 PUSH1 0x1 PUSH1 0xA0 SHL SUB NOT AND DUP4 OR SWAP1 SSTORE MLOAD SWAP3 SWAP4 SWAP2 DUP3 SWAP2 SWAP1 PUSH32 0x9709D1C96FB9236CDBD052044D3E54AE0D0FF0A766306E5F2035C663BE4E3FEE SWAP1 DUP1 LOG3 DUP2 MSTORE RETURN JUMPDEST PUSH4 0x4E487B71 PUSH1 0xE0 SHL PUSH1 0x0 MSTORE PUSH1 0x11 PUSH1 0x4 MSTORE PUSH1 0x24 PUSH1 0x0 REVERT JUMPDEST PUSH1 0x40 MLOAD PUSH3 0x461BCD PUSH1 0xE5 SHL DUP2 MSTORE PUSH1 0x20 PUSH1 0x4 DUP3 ADD MSTORE PUSH1 0x12 PUSH1 0x24 DUP3 ADD MSTORE PUSH18 0x105B1C9958591E481C9959DA5CDD195C9959 PUSH1 0x72 SHL PUSH1 0x44 DUP3 ADD MSTORE PUSH1 0x64 SWAP1 REVERT JUMPDEST CALLVALUE PUSH2 0xBE JUMPI PUSH1 0x20 CALLDATASIZE PUSH1 0x3 NOT ADD SLT PUSH2 0xBE JUMPI PUSH1 0x1 PUSH1 0x1 PUSH1 0xA0 SHL SUB PUSH2 0x482 PUSH2 0x52E JUMP JUMPDEST AND PUSH2 0x48E DUP2 ISZERO ISZERO PUSH2 0x544 JUMP JUMPDEST CALLER PUSH1 0x0 MSTORE PUSH1 0x1 PUSH1 0x20 MSTORE PUSH1 0x40 PUSH1 0x0 KECCAK256 SLOAD PUSH2 0x4A8 DUP2 ISZERO ISZERO PUSH2 0x582 JUMP JUMPDEST DUP2 PUSH1 0x0 MSTORE PUSH1 0x1 PUSH1 0x20 MSTORE PUSH2 0x4C0 PUSH1 0x40 PUSH1 0x0 KECCAK256 SLOAD ISZERO PUSH2 0x5C2 JUMP JUMPDEST CALLER PUSH1 0x0 MSTORE PUSH1 0x1 PUSH1 0x20 MSTORE PUSH1 0x0 PUSH1 0x40 DUP2 KECCAK256 SSTORE DUP2 PUSH1 0x0 MSTORE PUSH1 0x1 PUSH1 0x20 MSTORE DUP1 PUSH1 0x40 PUSH1 0x0 KECCAK256 SSTORE DUP1 PUSH1 0x0 MSTORE PUSH1 0x2 PUSH1 0x20 MSTORE PUSH1 0x40 PUSH1 0x0 KECCAK256 DUP3 PUSH12 0xFFFFFFFFFFFFFFFFFFFFFFFF PUSH1 0xA0 SHL DUP3 SLOAD AND OR SWAP1 SSTORE CALLER SWAP1 PUSH32 0x1B2D0F1608E366CD734CDF069081CF5572ED11851C873B4BDBD2C4022F8A3EF5 PUSH1 0x0 DUP1 LOG4 STOP JUMPDEST PUSH1 0x4 CALLDATALOAD SWAP1 PUSH1 0x1 PUSH1 0x1 PUSH1 0xA0 SHL SUB DUP3 AND DUP3 SUB PUSH2 0xBE JUMPI JUMP JUMPDEST ISZERO PUSH2 0x54B JUMPI JUMP JUMPDEST PUSH1 0x40 MLOAD PUSH3 0x461BCD PUSH1 0xE5 SHL DUP2 MSTORE PUSH1 0x20 PUSH1 0x4 DUP3 ADD MSTORE PUSH1 0xF PUSH1 0x24 DUP3 ADD MSTORE PUSH15 0x496E76616C69642061646472657373 PUSH1 0x88 SHL PUSH1 0x44 DUP3 ADD MSTORE PUSH1 0x64 SWAP1 REVERT JUMPDEST ISZERO PUSH2 0x589 JUMPI JUMP JUMPDEST PUSH1 0x40 MLOAD PUSH3 0x461BCD PUSH1 0xE5 SHL DUP2 MSTORE PUSH1 0x20 PUSH1 0x4 DUP3 ADD MSTORE PUSH1 0x11 PUSH1 0x24 DUP3 ADD MSTORE PUSH17 0x139BC8119251081C9959DA5CDD195C9959 PUSH1 0x7A SHL PUSH1 0x44 DUP3 ADD MSTORE PUSH1 0x64 SWAP1 REVERT JUMPDEST ISZERO PUSH2 0x5C9 JUMPI JUMP JUMPDEST PUSH1 0x40 MLOAD PUSH3 0x461BCD PUSH1 0xE5 SHL DUP2 MSTORE PUSH1 0x20 PUSH1 0x4 DUP3 ADD MSTORE PUSH1 0x19 PUSH1 0x24 DUP3 ADD MSTORE PUSH32 0x526563697069656E7420616C7265616479206861732046494400000000000000 PUSH1 0x44 DUP3 ADD MSTORE PUSH1 0x64 SWAP1 REVERT INVALID LOG2 PUSH5 0x6970667358 0x22 SLT KECCAK256 PUSH7 0xF44ABA1D1F8021 DUP1 DELEGATECALL 0xE5 SWAP14 SUB 0xB5 SSTORE 0xB2 CODESIZE 0x4C 0x24 PUSH27 0x1B38DFF2BCB2123F9C0F7F1D64736F6C634300081C003300000000 "},"methodIdentifiers":{"fidExists(uint256)":"c3439340","fidOf(address)":"c63dc1c7","getFID(address)":"8db6bc29","nextFID()":"29b59c8c","ownerOf(uint256)":"6352211e","recover(uint256,address)":"4eea48e2","recoveryOf(uint256)":"fa1a1b25","register()":"1aa3a008","setRecoveryAddress(address)":"49efe5ae","transfer(address)":"1a695230"}}}}}