{"contracts/StorageRegistry.sol":{"StorageRegistry":{"abi":[{"inputs":[{"internalType":"address","name":"_idRegistry","type":"address"},{"internalType":"uint256","name":"_pricePerUnit","type":"uint256"},{"internalType":"bool","name":"_testnetMode","type":"bool"}],"stateMutability":"nonpayable","type":"constructor"},{"anonymous":false,"inputs":[{"indexed":false,"internalType":"uint256","name":"oldPrice","type":"uint256"},{"indexed":false,"internalType":"uint256","name":"newPrice","type":"uint256"}],"name":"PriceUpdated","type":"event"},{"anonymous":false,"inputs":[{"indexed":true,"internalType":"uint256","name":"fid","type":"uint256"},{"indexed":false,"internalType":"uint256","name":"units","type":"uint256"},{"indexed":false,"internalType":"uint256","name":"totalCost","type":"uint256"}],"name":"StorageRented","type":"event"},{"anonymous":false,"inputs":[{"indexed":false,"internalType":"bool","name":"enabled","type":"bool"}],"name":"TestnetModeUpdated","type":"event"},{"inputs":[],"name":"getPrice","outputs":[{"internalType":"uint256","name":"","type":"uint256"}],"stateMutability":"view","type":"function"},{"inputs":[{"internalType":"uint256","name":"fid","type":"uint256"}],"name":"getStorageUnits","outputs":[{"internalType":"uint256","name":"","type":"uint256"}],"stateMutability":"view","type":"function"},{"inputs":[],"name":"idRegistry","outputs":[{"internalType":"contract IdRegistry","name":"","type":"address"}],"stateMutability":"view","type":"function"},{"inputs":[],"name":"owner","outputs":[{"internalType":"address","name":"","type":"address"}],"stateMutability":"view","type":"function"},{"inputs":[],"name":"pricePerUnit","outputs":[{"internalType":"uint256","name":"","type":"uint256"}],"stateMutability":"view","type":"function"},{"inputs":[{"internalType":"uint256","name":"fid","type":"uint256"},{"internalType":"uint256","name":"units","type":"uint256"}],"name":"rent","outputs":[],"stateMutability":"payable","type":"function"},{"inputs":[{"internalType":"uint256","name":"newPrice","type":"uint256"}],"name":"setPrice","outputs":[],"stateMutability":"nonpayable","type":"function"},{"inputs":[{"internalType":"bool","name":"enabled","type":"bool"}],"name":"setTestnetMode","outputs":[],"stateMutability":"nonpayable","type":"function"},{"inputs":[{"internalType":"uint256","name":"","type":"uint256"}],"name":"storageUnitsOf","outputs":[{"internalType":"uint256","name":"","type":"uint256"}],"stateMutability":"view","type":"function"},{"inputs":[],"name":"testnetMode","outputs":[{"internalType":"bool","name":"","type":"bool"}],"stateMutability":"view","type":"function"},{"inputs":[],"name":"withdraw","outputs":[],"stateMutability":"nonpayable","type":"function"}],"evm":{"bytecode":{"linkReferences":{},"object":"6080346100f757601f61073c38819003918201601f19168301916001600160401b038311848410176100fc578084926060946040528339810103126100f75780516001600160a01b03811691908290036100f75760406020820151910151918215158093036100f75780156100bd57600080546001600160a01b031916919091179055600255600380546001600160a81b03191660ff92909216919091173360081b610100600160a81b031617905560405161062990816101138239f35b60405162461bcd60e51b8152602060048201526012602482015271496e76616c6964204964526567697374727960701b6044820152606490fd5b600080fd5b634e487b7160e01b600052604160045260246000fdfe608080604052600436101561001357600080fd5b60003560e01c9081630aa13b8c1461055f575080632f09c146146104ec5780633ccfd60b146104a2578063783a112b146101ce5780638da5cb5b146101a15780638db392251461009857806391b7f5ed1461013d57806398d5fdca1461010a578063bcf17672146100e7578063e66825c3146100c95763edcce3d01461009857600080fd5b346100c45760203660031901126100c45760043560005260016020526020604060002054604051908152f35b600080fd5b346100c45760003660031901126100c4576020600254604051908152f35b346100c45760003660031901126100c457602060ff600354166040519015158152f35b346100c45760003660031901126100c45760035460ff161561013357602060005b604051908152f35b602060025461012b565b346100c45760203660031901126100c4577f945c1c4e99aa89f648fbfe3df471b916f719e16d960fcec0737d4d56bd696838604060043561018c60018060a01b0360035460081c163314610583565b600254908060025582519182526020820152a1005b346100c45760003660031901126100c45760035460405160089190911c6001600160a01b03168152602090f35b60403660031901126100c45760043560243560018060a01b036000541660405163030d0e4d60e61b8152836004820152602081602481855afa9081156102e657600091610467575b501561042d576020602491604051928380926331a9108f60e11b82528760048301525afa9081156102e6576000916103e4575b50336001600160a01b03909116036103af57801561037a57600060ff6003541615610311575b82600052600160205260406000208054908382018092116102fb57558034116102c5575b7fd5463eefe0016fcba3f9e7f25e9d0ec5c6c74000f61602089376213870f278af9160409182519182526020820152a2005b8034033481116102fb57600080808093818634146102f2575b3390f1610293575b6040513d6000823e3d90fd5b506108fc6102de565b634e487b7160e01b600052601160045260246000fd5b60025490818302918383040361036657508034101561026f5760405162461bcd60e51b8152602060048201526014602482015273125b9cdd59999a58da595b9d081c185e5b595b9d60621b6044820152606490fd5b634e487b7160e01b81526011600452602490fd5b60405162461bcd60e51b815260206004820152600d60248201526c496e76616c696420756e69747360981b6044820152606490fd5b60405162461bcd60e51b815260206004820152600d60248201526c2737ba102324a21037bbb732b960991b6044820152606490fd5b6020813d602011610425575b816103fd602093836105bb565b810103126104215751906001600160a01b038216820361041e575083610249565b80fd5b5080fd5b3d91506103f0565b60405162461bcd60e51b815260206004820152601260248201527111925108191bd95cc81b9bdd08195e1a5cdd60721b6044820152606490fd5b6020813d60201161049a575b81610480602093836105bb565b81010312610421575190811515820361041e575084610216565b3d9150610473565b346100c45760003660031901126100c457600080808060018060a01b0360035460081c166104d1813314610583565b47908282156104e3575bf1156102e657005b506108fc6104db565b346100c45760203660031901126100c4576004358015158091036100c4576003547f48e7bf29001de4881e0ba2fd384c1ca5e14297a82d76636b396f83433315c3c99160209161054a33600883901c6001600160a01b031614610583565b60ff191660ff821617600355604051908152a1005b346100c45760003660031901126100c4576000546001600160a01b03168152602090f35b1561058a57565b60405162461bcd60e51b81526020600482015260096024820152682737ba1037bbb732b960b91b6044820152606490fd5b90601f8019910116810190811067ffffffffffffffff8211176105dd57604052565b634e487b7160e01b600052604160045260246000fdfea264697066735822122091bebd3788519ad9fab3c5115ffe7fcd6b9d82c96fb854d98daf4d1581b5e25a64736f6c634300081c0033","opcodes":"PUSH1 0x80 CALLVALUE PUSH2 0xF7 JUMPI PUSH1 0x1F PUSH2 0x73C CODESIZE DUP2 SWAP1 SUB SWAP2 DUP3 ADD PUSH1 0x1F NOT AND DUP4 ADD SWAP2 PUSH1 0x1 PUSH1 0x1 PUSH1 0x40 SHL SUB DUP4 GT DUP5 DUP5 LT OR PUSH2 0xFC JUMPI DUP1 DUP5 SWAP3 PUSH1 0x60 SWAP5 PUSH1 0x40 MSTORE DUP4 CODECOPY DUP2 ADD SUB SLT PUSH2 0xF7 JUMPI DUP1 MLOAD PUSH1 0x1 PUSH1 0x1 PUSH1 0xA0 SHL SUB DUP2 AND SWAP2 SWAP1 DUP3 SWAP1 SUB PUSH2 0xF7 JUMPI PUSH1 0x40 PUSH1 0x20 DUP3 ADD MLOAD SWAP2 ADD MLOAD SWAP2 DUP3 ISZERO ISZERO DUP1 SWAP4 SUB PUSH2 0xF7 JUMPI DUP1 ISZERO PUSH2 0xBD JUMPI PUSH1 0x0 DUP1 SLOAD PUSH1 0x1 PUSH1 0x1 PUSH1 0xA0 SHL SUB NOT AND SWAP2 SWAP1 SWAP2 OR SWAP1 SSTORE PUSH1 0x2 SSTORE PUSH1 0x3 DUP1 SLOAD PUSH1 0x1 PUSH1 0x1 PUSH1 0xA8 SHL SUB NOT AND PUSH1 0xFF SWAP3 SWAP1 SWAP3 AND SWAP2 SWAP1 SWAP2 OR CALLER PUSH1 0x8 SHL PUSH2 0x100 PUSH1 0x1 PUSH1 0xA8 SHL SUB AND OR SWAP1 SSTORE PUSH1 0x40 MLOAD PUSH2 0x629 SWAP1 DUP2 PUSH2 0x113 DUP3 CODECOPY RETURN JUMPDEST PUSH1 0x40 MLOAD PUSH3 0x461BCD PUSH1 0xE5 SHL DUP2 MSTORE PUSH1 0x20 PUSH1 0x4 DUP3 ADD MSTORE PUSH1 0x12 PUSH1 0x24 DUP3 ADD MSTORE PUSH18 0x496E76616C69642049645265676973747279 PUSH1 0x70 SHL PUSH1 0x44 DUP3 ADD MSTORE PUSH1 0x64 SWAP1 REVERT JUMPDEST PUSH1 0x0 DUP1 REVERT JUMPDEST PUSH4 0x4E487B71 PUSH1 0xE0 SHL PUSH1 0x0 MSTORE PUSH1 0x41 PUSH1 0x4 MSTORE PUSH1 0x24 PUSH1 0x0 REVERT INVALID PUSH1 0x80 DUP1 PUSH1 0x40 MSTORE PUSH1 0x4 CALLDATASIZE LT ISZERO PUSH2 0x13 JUMPI PUSH1 0x0 DUP1 REVERT JUMPDEST PUSH1 0x0 CALLDATALOAD PUSH1 0xE0 SHR SWAP1 DUP2 PUSH4 0xAA13B8C EQ PUSH2 0x55F JUMPI POP DUP1 PUSH4 0x2F09C146 EQ PUSH2 0x4EC JUMPI DUP1 PUSH4 0x3CCFD60B EQ PUSH2 0x4A2 JUMPI DUP1 PUSH4 0x783A112B EQ PUSH2 0x1CE JUMPI DUP1 PUSH4 0x8DA5CB5B EQ PUSH2 0x1A1 JUMPI DUP1 PUSH4 0x8DB39225 EQ PUSH2 0x98 JUMPI DUP1 PUSH4 0x91B7F5ED EQ PUSH2 0x13D JUMPI DUP1 PUSH4 0x98D5FDCA EQ PUSH2 0x10A JUMPI DUP1 PUSH4 0xBCF17672 EQ PUSH2 0xE7 JUMPI DUP1 PUSH4 0xE66825C3 EQ PUSH2 0xC9 JUMPI PUSH4 0xEDCCE3D0 EQ PUSH2 0x98 JUMPI PUSH1 0x0 DUP1 REVERT JUMPDEST CALLVALUE PUSH2 0xC4 JUMPI PUSH1 0x20 CALLDATASIZE PUSH1 0x3 NOT ADD SLT PUSH2 0xC4 JUMPI PUSH1 0x4 CALLDATALOAD PUSH1 0x0 MSTORE PUSH1 0x1 PUSH1 0x20 MSTORE PUSH1 0x20 PUSH1 0x40 PUSH1 0x0 KECCAK256 SLOAD PUSH1 0x40 MLOAD SWAP1 DUP2 MSTORE RETURN JUMPDEST PUSH1 0x0 DUP1 REVERT JUMPDEST CALLVALUE PUSH2 0xC4 JUMPI PUSH1 0x0 CALLDATASIZE PUSH1 0x3 NOT ADD SLT PUSH2 0xC4 JUMPI PUSH1 0x20 PUSH1 0x2 SLOAD PUSH1 0x40 MLOAD SWAP1 DUP2 MSTORE RETURN JUMPDEST CALLVALUE PUSH2 0xC4 JUMPI PUSH1 0x0 CALLDATASIZE PUSH1 0x3 NOT ADD SLT PUSH2 0xC4 JUMPI PUSH1 0x20 PUSH1 0xFF PUSH1 0x3 SLOAD AND PUSH1 0x40 MLOAD SWAP1 ISZERO ISZERO DUP2 MSTORE RETURN JUMPDEST CALLVALUE PUSH2 0xC4 JUMPI PUSH1 0x0 CALLDATASIZE PUSH1 0x3 NOT ADD SLT PUSH2 0xC4 JUMPI PUSH1 0x3 SLOAD PUSH1 0xFF AND ISZERO PUSH2 0x133 JUMPI PUSH1 0x20 PUSH1 0x0 JUMPDEST PUSH1 0x40 MLOAD SWAP1 DUP2 MSTORE RETURN JUMPDEST PUSH1 0x20 PUSH1 0x2 SLOAD PUSH2 0x12B JUMP JUMPDEST CALLVALUE PUSH2 0xC4 JUMPI PUSH1 0x20 CALLDATASIZE PUSH1 0x3 NOT ADD SLT PUSH2 0xC4 JUMPI PUSH32 0x945C1C4E99AA89F648FBFE3DF471B916F719E16D960FCEC0737D4D56BD696838 PUSH1 0x40 PUSH1 0x4 CALLDATALOAD PUSH2 0x18C PUSH1 0x1 DUP1 PUSH1 0xA0 SHL SUB PUSH1 0x3 SLOAD PUSH1 0x8 SHR AND CALLER EQ PUSH2 0x583 JUMP JUMPDEST PUSH1 0x2 SLOAD SWAP1 DUP1 PUSH1 0x2 SSTORE DUP3 MLOAD SWAP2 DUP3 MSTORE PUSH1 0x20 DUP3 ADD MSTORE LOG1 STOP JUMPDEST CALLVALUE PUSH2 0xC4 JUMPI PUSH1 0x0 CALLDATASIZE PUSH1 0x3 NOT ADD SLT PUSH2 0xC4 JUMPI PUSH1 0x3 SLOAD PUSH1 0x40 MLOAD PUSH1 0x8 SWAP2 SWAP1 SWAP2 SHR PUSH1 0x1 PUSH1 0x1 PUSH1 0xA0 SHL SUB AND DUP2 MSTORE PUSH1 0x20 SWAP1 RETURN JUMPDEST PUSH1 0x40 CALLDATASIZE PUSH1 0x3 NOT ADD SLT PUSH2 0xC4 JUMPI PUSH1 0x4 CALLDATALOAD PUSH1 0x24 CALLDATALOAD PUSH1 0x1 DUP1 PUSH1 0xA0 SHL SUB PUSH1 0x0 SLOAD AND PUSH1 0x40 MLOAD PUSH4 0x30D0E4D PUSH1 0xE6 SHL DUP2 MSTORE DUP4 PUSH1 0x4 DUP3 ADD MSTORE PUSH1 0x20 DUP2 PUSH1 0x24 DUP2 DUP6 GAS STATICCALL SWAP1 DUP2 ISZERO PUSH2 0x2E6 JUMPI PUSH1 0x0 SWAP2 PUSH2 0x467 JUMPI JUMPDEST POP ISZERO PUSH2 0x42D JUMPI PUSH1 0x20 PUSH1 0x24 SWAP2 PUSH1 0x40 MLOAD SWAP3 DUP4 DUP1 SWAP3 PUSH4 0x31A9108F PUSH1 0xE1 SHL DUP3 MSTORE DUP8 PUSH1 0x4 DUP4 ADD MSTORE GAS STATICCALL SWAP1 DUP2 ISZERO PUSH2 0x2E6 JUMPI PUSH1 0x0 SWAP2 PUSH2 0x3E4 JUMPI JUMPDEST POP CALLER PUSH1 0x1 PUSH1 0x1 PUSH1 0xA0 SHL SUB SWAP1 SWAP2 AND SUB PUSH2 0x3AF JUMPI DUP1 ISZERO PUSH2 0x37A JUMPI PUSH1 0x0 PUSH1 0xFF PUSH1 0x3 SLOAD AND ISZERO PUSH2 0x311 JUMPI JUMPDEST DUP3 PUSH1 0x0 MSTORE PUSH1 0x1 PUSH1 0x20 MSTORE PUSH1 0x40 PUSH1 0x0 KECCAK256 DUP1 SLOAD SWAP1 DUP4 DUP3 ADD DUP1 SWAP3 GT PUSH2 0x2FB JUMPI SSTORE DUP1 CALLVALUE GT PUSH2 0x2C5 JUMPI JUMPDEST PUSH32 0xD5463EEFE0016FCBA3F9E7F25E9D0EC5C6C74000F61602089376213870F278AF SWAP2 PUSH1 0x40 SWAP2 DUP3 MLOAD SWAP2 DUP3 MSTORE PUSH1 0x20 DUP3 ADD MSTORE LOG2 STOP JUMPDEST DUP1 CALLVALUE SUB CALLVALUE DUP2 GT PUSH2 0x2FB JUMPI PUSH1 0x0 DUP1 DUP1 DUP1 SWAP4 DUP2 DUP7 CALLVALUE EQ PUSH2 0x2F2 JUMPI JUMPDEST CALLER SWAP1 CALL PUSH2 0x293 JUMPI JUMPDEST PUSH1 0x40 MLOAD RETURNDATASIZE PUSH1 0x0 DUP3 RETURNDATACOPY RETURNDATASIZE SWAP1 REVERT JUMPDEST POP PUSH2 0x8FC PUSH2 0x2DE JUMP JUMPDEST PUSH4 0x4E487B71 PUSH1 0xE0 SHL PUSH1 0x0 MSTORE PUSH1 0x11 PUSH1 0x4 MSTORE PUSH1 0x24 PUSH1 0x0 REVERT JUMPDEST PUSH1 0x2 SLOAD SWAP1 DUP2 DUP4 MUL SWAP2 DUP4 DUP4 DIV SUB PUSH2 0x366 JUMPI POP DUP1 CALLVALUE LT ISZERO PUSH2 0x26F JUMPI PUSH1 0x40 MLOAD PUSH3 0x461BCD PUSH1 0xE5 SHL DUP2 MSTORE PUSH1 0x20 PUSH1 0x4 DUP3 ADD MSTORE PUSH1 0x14 PUSH1 0x24 DUP3 ADD MSTORE PUSH20 0x125B9CDD59999A58DA595B9D081C185E5B595B9D PUSH1 0x62 SHL PUSH1 0x44 DUP3 ADD MSTORE PUSH1 0x64 SWAP1 REVERT JUMPDEST PUSH4 0x4E487B71 PUSH1 0xE0 SHL DUP2 MSTORE PUSH1 0x11 PUSH1 0x4 MSTORE PUSH1 0x24 SWAP1 REVERT JUMPDEST PUSH1 0x40 MLOAD PUSH3 0x461BCD PUSH1 0xE5 SHL DUP2 MSTORE PUSH1 0x20 PUSH1 0x4 DUP3 ADD MSTORE PUSH1 0xD PUSH1 0x24 DUP3 ADD MSTORE PUSH13 0x496E76616C696420756E697473 PUSH1 0x98 SHL PUSH1 0x44 DUP3 ADD MSTORE PUSH1 0x64 SWAP1 REVERT JUMPDEST PUSH1 0x40 MLOAD PUSH3 0x461BCD PUSH1 0xE5 SHL DUP2 MSTORE PUSH1 0x20 PUSH1 0x4 DUP3 ADD MSTORE PUSH1 0xD PUSH1 0x24 DUP3 ADD MSTORE PUSH13 0x2737BA102324A21037BBB732B9 PUSH1 0x99 SHL PUSH1 0x44 DUP3 ADD MSTORE PUSH1 0x64 SWAP1 REVERT JUMPDEST PUSH1 0x20 DUP2 RETURNDATASIZE PUSH1 0x20 GT PUSH2 0x425 JUMPI JUMPDEST DUP2 PUSH2 0x3FD PUSH1 0x20 SWAP4 DUP4 PUSH2 0x5BB JUMP JUMPDEST DUP2 ADD SUB SLT PUSH2 0x421 JUMPI MLOAD SWAP1 PUSH1 0x1 PUSH1 0x1 PUSH1 0xA0 SHL SUB DUP3 AND DUP3 SUB PUSH2 0x41E JUMPI POP DUP4 PUSH2 0x249 JUMP JUMPDEST DUP1 REVERT JUMPDEST POP DUP1 REVERT JUMPDEST RETURNDATASIZE SWAP2 POP PUSH2 0x3F0 JUMP JUMPDEST PUSH1 0x40 MLOAD PUSH3 0x461BCD PUSH1 0xE5 SHL DUP2 MSTORE PUSH1 0x20 PUSH1 0x4 DUP3 ADD MSTORE PUSH1 0x12 PUSH1 0x24 DUP3 ADD MSTORE PUSH18 0x11925108191BD95CC81B9BDD08195E1A5CDD PUSH1 0x72 SHL PUSH1 0x44 DUP3 ADD MSTORE PUSH1 0x64 SWAP1 REVERT JUMPDEST PUSH1 0x20 DUP2 RETURNDATASIZE PUSH1 0x20 GT PUSH2 0x49A JUMPI JUMPDEST DUP2 PUSH2 0x480 PUSH1 0x20 SWAP4 DUP4 PUSH2 0x5BB JUMP JUMPDEST DUP2 ADD SUB SLT PUSH2 0x421 JUMPI MLOAD SWAP1 DUP2 ISZERO ISZERO DUP3 SUB PUSH2 0x41E JUMPI POP DUP5 PUSH2 0x216 JUMP JUMPDEST RETURNDATASIZE SWAP2 POP PUSH2 0x473 JUMP JUMPDEST CALLVALUE PUSH2 0xC4 JUMPI PUSH1 0x0 CALLDATASIZE PUSH1 0x3 NOT ADD SLT PUSH2 0xC4 JUMPI PUSH1 0x0 DUP1 DUP1 DUP1 PUSH1 0x1 DUP1 PUSH1 0xA0 SHL SUB PUSH1 0x3 SLOAD PUSH1 0x8 SHR AND PUSH2 0x4D1 DUP2 CALLER EQ PUSH2 0x583 JUMP JUMPDEST SELFBALANCE SWAP1 DUP3 DUP3 ISZERO PUSH2 0x4E3 JUMPI JUMPDEST CALL ISZERO PUSH2 0x2E6 JUMPI STOP JUMPDEST POP PUSH2 0x8FC PUSH2 0x4DB JUMP JUMPDEST CALLVALUE PUSH2 0xC4 JUMPI PUSH1 0x20 CALLDATASIZE PUSH1 0x3 NOT ADD SLT PUSH2 0xC4 JUMPI PUSH1 0x4 CALLDATALOAD DUP1 ISZERO ISZERO DUP1 SWAP2 SUB PUSH2 0xC4 JUMPI PUSH1 0x3 SLOAD PUSH32 0x48E7BF29001DE4881E0BA2FD384C1CA5E14297A82D76636B396F83433315C3C9 SWAP2 PUSH1 0x20 SWAP2 PUSH2 0x54A CALLER PUSH1 0x8 DUP4 SWAP1 SHR PUSH1 0x1 PUSH1 0x1 PUSH1 0xA0 SHL SUB AND EQ PUSH2 0x583 JUMP JUMPDEST PUSH1 0xFF NOT AND PUSH1 0xFF DUP3 AND OR PUSH1 0x3 SSTORE PUSH1 0x40 MLOAD SWAP1 DUP2 MSTORE LOG1 STOP JUMPDEST CALLVALUE PUSH2 0xC4 JUMPI PUSH1 0x0 CALLDATASIZE PUSH1 0x3 NOT ADD SLT PUSH2 0xC4 JUMPI PUSH1 0x0 SLOAD PUSH1 0x1 PUSH1 0x1 PUSH1 0xA0 SHL SUB AND DUP2 MSTORE PUSH1 0x20 SWAP1 RETURN JUMPDEST ISZERO PUSH2 0x58A JUMPI JUMP JUMPDEST PUSH1 0x40 MLOAD PUSH3 0x461BCD PUSH1 0xE5 SHL DUP2 MSTORE PUSH1 0x20 PUSH1 0x4 DUP3 ADD MSTORE PUSH1 0x9 PUSH1 0x24 DUP3 ADD MSTORE PUSH9 0x2737BA1037BBB732B9 PUSH1 0xB9 SHL PUSH1 0x44 DUP3 ADD MSTORE PUSH1 0x64 SWAP1 REVERT JUMPDEST SWAP1 PUSH1 0x1F DUP1 NOT SWAP2 ADD AND DUP2 ADD SWAP1 DUP2 LT PUSH8 0xFFFFFFFFFFFFFFFF DUP3 GT OR PUSH2 0x5DD JUMPI PUSH1 0x40 MSTORE JUMP JUMPDEST PUSH4 0x4E487B71 PUSH1 0xE0 SHL PUSH1 0x0 MSTORE PUSH1 0x41 PUSH1 0x4 MSTORE PUSH1 0x24 PUSH1 0x0 REVERT INVALID LOG2 PUSH5 0x6970667358 0x22 SLT KECCAK256 SWAP2 0xBE 0xBD CALLDATACOPY DUP9 MLOAD SWAP11 0xD9 STATICCALL 0xB3 0xC5 GT PUSH0 INVALID PUSH32 0xCD6B9D82C96FB854D98DAF4D1581B5E25A64736F6C634300081C003300000000 "},"methodIdentifiers":{"getPrice()":"98d5fdca","getStorageUnits(uint256)":"8db39225","idRegistry()":"0aa13b8c","owner()":"8da5cb5b","pricePerUnit()":"e66825c3","rent(uint256,uint256)":"783a112b","setPrice(uint256)":"91b7f5ed","setTestnetMode(bool)":"2f09c146","storageUnitsOf(uint256)":"edcce3d0","testnetMode()":"bcf17672","withdraw()":"3ccfd60b"}}}}}