{"contracts/KeyRegistry.sol":{"KeyRegistry":{"abi":[{"inputs":[{"internalType":"address","name":"_idRegistry","type":"address"}],"stateMutability":"nonpayable","type":"constructor"},{"anonymous":false,"inputs":[{"indexed":true,"internalType":"uint256","name":"fid","type":"uint256"},{"indexed":true,"internalType":"bytes32","name":"key","type":"bytes32"},{"indexed":false,"internalType":"uint256","name":"expiresAt","type":"uint256"}],"name":"KeyAdded","type":"event"},{"anonymous":false,"inputs":[{"indexed":true,"internalType":"uint256","name":"fid","type":"uint256"},{"indexed":true,"internalType":"bytes32","name":"key","type":"bytes32"}],"name":"KeyRemoved","type":"event"},{"anonymous":false,"inputs":[{"indexed":true,"internalType":"uint256","name":"fid","type":"uint256"},{"indexed":true,"internalType":"bytes32","name":"key","type":"bytes32"}],"name":"KeyRevoked","type":"event"},{"inputs":[{"internalType":"uint256","name":"fid","type":"uint256"},{"internalType":"bytes32","name":"key","type":"bytes32"},{"internalType":"uint256","name":"expiresAt","type":"uint256"}],"name":"add","outputs":[],"stateMutability":"nonpayable","type":"function"},{"inputs":[{"internalType":"bytes32","name":"","type":"bytes32"}],"name":"fidOfKey","outputs":[{"internalType":"uint256","name":"","type":"uint256"}],"stateMutability":"view","type":"function"},{"inputs":[{"internalType":"uint256","name":"fid","type":"uint256"}],"name":"getActiveKeys","outputs":[{"components":[{"internalType":"bytes32","name":"key","type":"bytes32"},{"internalType":"uint256","name":"addedAt","type":"uint256"},{"internalType":"uint256","name":"expiresAt","type":"uint256"},{"internalType":"bool","name":"revoked","type":"bool"}],"internalType":"struct KeyRegistry.KeyData[]","name":"","type":"tuple[]"}],"stateMutability":"view","type":"function"},{"inputs":[{"internalType":"uint256","name":"fid","type":"uint256"}],"name":"getKeys","outputs":[{"components":[{"internalType":"bytes32","name":"key","type":"bytes32"},{"internalType":"uint256","name":"addedAt","type":"uint256"},{"internalType":"uint256","name":"expiresAt","type":"uint256"},{"internalType":"bool","name":"revoked","type":"bool"}],"internalType":"struct KeyRegistry.KeyData[]","name":"","type":"tuple[]"}],"stateMutability":"view","type":"function"},{"inputs":[],"name":"idRegistry","outputs":[{"internalType":"contract IdRegistry","name":"","type":"address"}],"stateMutability":"view","type":"function"},{"inputs":[{"internalType":"bytes32","name":"key","type":"bytes32"}],"name":"isValidKey","outputs":[{"internalType":"bool","name":"","type":"bool"}],"stateMutability":"view","type":"function"},{"inputs":[{"internalType":"uint256","name":"","type":"uint256"},{"internalType":"uint256","name":"","type":"uint256"}],"name":"keysOf","outputs":[{"internalType":"bytes32","name":"key","type":"bytes32"},{"internalType":"uint256","name":"addedAt","type":"uint256"},{"internalType":"uint256","name":"expiresAt","type":"uint256"},{"internalType":"bool","name":"revoked","type":"bool"}],"stateMutability":"view","type":"function"},{"inputs":[{"internalType":"uint256","name":"fid","type":"uint256"},{"internalType":"uint256","name":"keyIndex","type":"uint256"}],"name":"remove","outputs":[],"stateMutability":"nonpayable","type":"function"},{"inputs":[{"internalType":"uint256","name":"fid","type":"uint256"},{"internalType":"uint256","name":"keyIndex","type":"uint256"}],"name":"revoke","outputs":[],"stateMutability":"nonpayable","type":"function"}],"evm":{"bytecode":{"linkReferences":{},"object":"60803460af57601f610ea638819003918201601f19168301916001600160401b0383118484101760b45780849260209460405283398101031260af57516001600160a01b0381169081900360af578015607557600080546001600160a01b031916919091179055604051610ddb90816100cb8239f35b60405162461bcd60e51b8152602060048201526012602482015271496e76616c6964204964526567697374727960701b6044820152606490fd5b600080fd5b634e487b7160e01b600052604160045260246000fdfe608080604052600436101561001357600080fd5b60003560e01c9081630aa13b8c14610a40575080631f4c53cf14610a145780636526db7a1461080e578063657683ae146107ac5780638d357fa314610703578063be1b6fc614610549578063c311755c146102c9578063cbd4f9f7146100af5763d01552201461008257600080fd5b346100aa5760203660031901126100aa5760206100a0600435610c77565b6040519015158152f35b600080fd5b346100aa5760203660031901126100aa576004356000526001602052604060002080546100db81610c3c565b916100e96040519384610b26565b818352602083019060005260206000206000915b83831061028357846000805b825181101561017657606061011e8285610c54565b5101511580610149575b610135575b600101610109565b90610141600191610c68565b91905061012d565b5060406101568285610c54565b51015115806101285750604061016c8285610c54565b5101514210610128565b5061018081610c3c565b9061018e6040519283610b26565b80825261019d601f1991610c3c565b0160005b81811061025057505060009060005b835181101561023e5760606101c58286610c54565b5101511580610211575b6101dc575b6001016101b0565b916102096001916101ed8587610c54565b516101f88286610c54565b526102038185610c54565b50610c68565b9290506101d4565b50604061021e8286610c54565b51015115806101cf575060406102348286610c54565b51015142106101cf565b6040518061024c8482610aac565b0390f35b60209060405161025f81610b0a565b600081526000838201526000604082015260006060820152828286010152016101a1565b6004602060019260405161029681610b0a565b8554815284860154838201526002860154604082015260ff600387015416151560608201528152019201920191906100fd565b346100aa5760603660031901126100aa576004356024359060443560018060a01b03600054166040519063030d0e4d60e61b8252836004830152602082602481845afa9081156105105761032a60209260249460009161051c575b50610b60565b604051928380926331a9108f60e11b82528760048301525afa801561051057610366916000916104e1575b506001600160a01b03163314610bc0565b82156104ae57826000526002602052604060002054610474576040519061038c82610b0a565b83825260208201904282526040830191818352606084019360008552856000526001602052604060002080546801000000000000000081101561045e576103d891600182018155610a7a565b919091610448577f021a3e61df3ef4dce1ac0427d6eb76fae755101eb4c33c96060cc204ea86d442956020956104309460039351855551600185015551600284015551151591019060ff801983541691151516179055565b846000526002825283604060002055604051908152a3005b634e487b7160e01b600052600060045260246000fd5b634e487b7160e01b600052604160045260246000fd5b60405162461bcd60e51b81526020600482015260126024820152714b657920616c726561647920696e2075736560701b6044820152606490fd5b60405162461bcd60e51b815260206004820152600b60248201526a496e76616c6964206b657960a81b6044820152606490fd5b610503915060203d602011610509575b6104fb8183610b26565b810190610ba1565b85610355565b503d6104f1565b6040513d6000823e3d90fd5b61053c9150843d8611610542575b6105348183610b26565b810190610b48565b88610324565b503d61052a565b346100aa5761055736610a64565b60005460405163030d0e4d60e61b815260048101849052906001600160a01b0316602082602481845afa9081156105105761059e6020926024946000916106e65750610b60565b604051928380926331a9108f60e11b82528760048301525afa8015610510576105d9916000916106c757506001600160a01b03163314610bc0565b8160005260016020526105f26040600020548210610bfc565b81600052600160205260ff600361060d836040600020610a7a565b5001541661068c57610652908260005260016020526003610632826040600020610a7a565b5001600160ff198254161790558260005260016020526040600020610a7a565b505490816000526002602052600060408120557fc6c4cb4467a4e9a913085a102940de05be5852dc857b4d22bfa847d95c4fab77600080a3005b60405162461bcd60e51b815260206004820152601360248201527212d95e48185b1c9958591e481c995d9bdad959606a1b6044820152606490fd5b6106e0915060203d602011610509576104fb8183610b26565b84610355565b6106fd9150843d8611610542576105348183610b26565b87610324565b346100aa5760203660031901126100aa5760043560005260016020526040600020805461072f81610c3c565b9161073d6040519384610b26565b818352602083019060005260206000206000915b838310610766576040518061024c8782610aac565b6004602060019260405161077981610b0a565b8554815284860154838201526002860154604082015260ff60038701541615156060820152815201920192019190610751565b346100aa576107ba36610a64565b906000526001602052604060002080548210156100aa576080916107dd91610a7a565b5080549060018101549060ff6003600283015492015416916040519384526020840152604083015215156060820152f35b346100aa5761081c36610a64565b60005460405163030d0e4d60e61b815260048101849052919291906001600160a01b0316602082602481845afa908115610510576108666020926024946000916106e65750610b60565b604051928380926331a9108f60e11b82528660048301525afa8015610510576108a1916000916106c757506001600160a01b03163314610bc0565b8060005260016020526108ba6040600020548310610bfc565b8060005260016020526108d1826040600020610a7a565b50549181600052600160205260406000205460001981019081116109fe57808203610986575b505080600052600160205260406000208054801561097057600019019061091e8282610a7a565b610448576003600091828155826001820155826002820155015555816000526002602052600060408120557f6e2c35f956341e48b2ee0a42f5e04aec2476bd4bb06ce7c4d3fdeaed7d495f07600080a3005b634e487b7160e01b600052603160045260246000fd5b6109a06109b5918460005260016020526040600020610a7a565b50918360005260016020526040600020610a7a565b610448578082146108f757600360ff81846109f795548555600181015460018601556002810154600286015501541691019060ff801983541691151516179055565b82806108f7565b634e487b7160e01b600052601160045260246000fd5b346100aa5760203660031901126100aa5760043560005260026020526020604060002054604051908152f35b346100aa5760003660031901126100aa576000546001600160a01b03168152602090f35b60409060031901126100aa576004359060243590565b8054821015610a965760005260206000209060021b0190600090565b634e487b7160e01b600052603260045260246000fd5b602060408183019282815284518094520192019060005b818110610ad05750505090565b9091926020608060019260608751805183528481015185840152604081015160408401520151151560608201520194019101919091610ac3565b6080810190811067ffffffffffffffff82111761045e57604052565b90601f8019910116810190811067ffffffffffffffff82111761045e57604052565b908160209103126100aa575180151581036100aa5790565b15610b6757565b60405162461bcd60e51b815260206004820152601260248201527111925108191bd95cc81b9bdd08195e1a5cdd60721b6044820152606490fd5b908160209103126100aa57516001600160a01b03811681036100aa5790565b15610bc757565b60405162461bcd60e51b815260206004820152600d60248201526c2737ba102324a21037bbb732b960991b6044820152606490fd5b15610c0357565b60405162461bcd60e51b8152602060048201526011602482015270092dcecc2d8d2c840d6caf240d2dcc8caf607b1b6044820152606490fd5b67ffffffffffffffff811161045e5760051b60200190565b8051821015610a965760209160051b010190565b60001981146109fe5760010190565b8060005260026020526040600020548015610d5057600052600160205260406000208054610ca481610c3c565b91610cb26040519384610b26565b818352602083019060005260206000206000915b838310610d5f575050505060005b8151811015610d575782610ce88284610c54565b515114610cf757600101610cd4565b9091506060610d068284610c54565b510151610d50576040610d198284610c54565b51015115159182610d35575b5050610d3057600190565b600090565b6040925090610d4391610c54565b5101514210153880610d25565b5050600090565b505050600090565b60046020600192604051610d7281610b0a565b8554815284860154838201526002860154604082015260ff60038701541615156060820152815201920192019190610cc656fea264697066735822122033351a82fddd6988e23fe97304986dc878f1dff39e21e80cebf2e458d16a071b64736f6c634300081c0033","opcodes":"PUSH1 0x80 CALLVALUE PUSH1 0xAF JUMPI PUSH1 0x1F PUSH2 0xEA6 CODESIZE DUP2 SWAP1 SUB SWAP2 DUP3 ADD PUSH1 0x1F NOT AND DUP4 ADD SWAP2 PUSH1 0x1 PUSH1 0x1 PUSH1 0x40 SHL SUB DUP4 GT DUP5 DUP5 LT OR PUSH1 0xB4 JUMPI DUP1 DUP5 SWAP3 PUSH1 0x20 SWAP5 PUSH1 0x40 MSTORE DUP4 CODECOPY DUP2 ADD SUB SLT PUSH1 0xAF JUMPI MLOAD PUSH1 0x1 PUSH1 0x1 PUSH1 0xA0 SHL SUB DUP2 AND SWAP1 DUP2 SWAP1 SUB PUSH1 0xAF JUMPI DUP1 ISZERO PUSH1 0x75 JUMPI PUSH1 0x0 DUP1 SLOAD PUSH1 0x1 PUSH1 0x1 PUSH1 0xA0 SHL SUB NOT AND SWAP2 SWAP1 SWAP2 OR SWAP1 SSTORE PUSH1 0x40 MLOAD PUSH2 0xDDB SWAP1 DUP2 PUSH2 0xCB DUP3 CODECOPY RETURN JUMPDEST PUSH1 0x40 MLOAD PUSH3 0x461BCD PUSH1 0xE5 SHL DUP2 MSTORE PUSH1 0x20 PUSH1 0x4 DUP3 ADD MSTORE PUSH1 0x12 PUSH1 0x24 DUP3 ADD MSTORE PUSH18 0x496E76616C69642049645265676973747279 PUSH1 0x70 SHL PUSH1 0x44 DUP3 ADD MSTORE PUSH1 0x64 SWAP1 REVERT JUMPDEST PUSH1 0x0 DUP1 REVERT JUMPDEST PUSH4 0x4E487B71 PUSH1 0xE0 SHL PUSH1 0x0 MSTORE PUSH1 0x41 PUSH1 0x4 MSTORE PUSH1 0x24 PUSH1 0x0 REVERT INVALID PUSH1 0x80 DUP1 PUSH1 0x40 MSTORE PUSH1 0x4 CALLDATASIZE LT ISZERO PUSH2 0x13 JUMPI PUSH1 0x0 DUP1 REVERT JUMPDEST PUSH1 0x0 CALLDATALOAD PUSH1 0xE0 SHR SWAP1 DUP2 PUSH4 0xAA13B8C EQ PUSH2 0xA40 JUMPI POP DUP1 PUSH4 0x1F4C53CF EQ PUSH2 0xA14 JUMPI DUP1 PUSH4 0x6526DB7A EQ PUSH2 0x80E JUMPI DUP1 PUSH4 0x657683AE EQ PUSH2 0x7AC JUMPI DUP1 PUSH4 0x8D357FA3 EQ PUSH2 0x703 JUMPI DUP1 PUSH4 0xBE1B6FC6 EQ PUSH2 0x549 JUMPI DUP1 PUSH4 0xC311755C EQ PUSH2 0x2C9 JUMPI DUP1 PUSH4 0xCBD4F9F7 EQ PUSH2 0xAF JUMPI PUSH4 0xD0155220 EQ PUSH2 0x82 JUMPI PUSH1 0x0 DUP1 REVERT JUMPDEST CALLVALUE PUSH2 0xAA JUMPI PUSH1 0x20 CALLDATASIZE PUSH1 0x3 NOT ADD SLT PUSH2 0xAA JUMPI PUSH1 0x20 PUSH2 0xA0 PUSH1 0x4 CALLDATALOAD PUSH2 0xC77 JUMP JUMPDEST PUSH1 0x40 MLOAD SWAP1 ISZERO ISZERO DUP2 MSTORE RETURN JUMPDEST PUSH1 0x0 DUP1 REVERT JUMPDEST CALLVALUE PUSH2 0xAA JUMPI PUSH1 0x20 CALLDATASIZE PUSH1 0x3 NOT ADD SLT PUSH2 0xAA JUMPI PUSH1 0x4 CALLDATALOAD PUSH1 0x0 MSTORE PUSH1 0x1 PUSH1 0x20 MSTORE PUSH1 0x40 PUSH1 0x0 KECCAK256 DUP1 SLOAD PUSH2 0xDB DUP2 PUSH2 0xC3C JUMP JUMPDEST SWAP2 PUSH2 0xE9 PUSH1 0x40 MLOAD SWAP4 DUP5 PUSH2 0xB26 JUMP JUMPDEST DUP2 DUP4 MSTORE PUSH1 0x20 DUP4 ADD SWAP1 PUSH1 0x0 MSTORE PUSH1 0x20 PUSH1 0x0 KECCAK256 PUSH1 0x0 SWAP2 JUMPDEST DUP4 DUP4 LT PUSH2 0x283 JUMPI DUP5 PUSH1 0x0 DUP1 JUMPDEST DUP3 MLOAD DUP2 LT ISZERO PUSH2 0x176 JUMPI PUSH1 0x60 PUSH2 0x11E DUP3 DUP6 PUSH2 0xC54 JUMP JUMPDEST MLOAD ADD MLOAD ISZERO DUP1 PUSH2 0x149 JUMPI JUMPDEST PUSH2 0x135 JUMPI JUMPDEST PUSH1 0x1 ADD PUSH2 0x109 JUMP JUMPDEST SWAP1 PUSH2 0x141 PUSH1 0x1 SWAP2 PUSH2 0xC68 JUMP JUMPDEST SWAP2 SWAP1 POP PUSH2 0x12D JUMP JUMPDEST POP PUSH1 0x40 PUSH2 0x156 DUP3 DUP6 PUSH2 0xC54 JUMP JUMPDEST MLOAD ADD MLOAD ISZERO DUP1 PUSH2 0x128 JUMPI POP PUSH1 0x40 PUSH2 0x16C DUP3 DUP6 PUSH2 0xC54 JUMP JUMPDEST MLOAD ADD MLOAD TIMESTAMP LT PUSH2 0x128 JUMP JUMPDEST POP PUSH2 0x180 DUP2 PUSH2 0xC3C JUMP JUMPDEST SWAP1 PUSH2 0x18E PUSH1 0x40 MLOAD SWAP3 DUP4 PUSH2 0xB26 JUMP JUMPDEST DUP1 DUP3 MSTORE PUSH2 0x19D PUSH1 0x1F NOT SWAP2 PUSH2 0xC3C JUMP JUMPDEST ADD PUSH1 0x0 JUMPDEST DUP2 DUP2 LT PUSH2 0x250 JUMPI POP POP PUSH1 0x0 SWAP1 PUSH1 0x0 JUMPDEST DUP4 MLOAD DUP2 LT ISZERO PUSH2 0x23E JUMPI PUSH1 0x60 PUSH2 0x1C5 DUP3 DUP7 PUSH2 0xC54 JUMP JUMPDEST MLOAD ADD MLOAD ISZERO DUP1 PUSH2 0x211 JUMPI JUMPDEST PUSH2 0x1DC JUMPI JUMPDEST PUSH1 0x1 ADD PUSH2 0x1B0 JUMP JUMPDEST SWAP2 PUSH2 0x209 PUSH1 0x1 SWAP2 PUSH2 0x1ED DUP6 DUP8 PUSH2 0xC54 JUMP JUMPDEST MLOAD PUSH2 0x1F8 DUP3 DUP7 PUSH2 0xC54 JUMP JUMPDEST MSTORE PUSH2 0x203 DUP2 DUP6 PUSH2 0xC54 JUMP JUMPDEST POP PUSH2 0xC68 JUMP JUMPDEST SWAP3 SWAP1 POP PUSH2 0x1D4 JUMP JUMPDEST POP PUSH1 0x40 PUSH2 0x21E DUP3 DUP7 PUSH2 0xC54 JUMP JUMPDEST MLOAD ADD MLOAD ISZERO DUP1 PUSH2 0x1CF JUMPI POP PUSH1 0x40 PUSH2 0x234 DUP3 DUP7 PUSH2 0xC54 JUMP JUMPDEST MLOAD ADD MLOAD TIMESTAMP LT PUSH2 0x1CF JUMP JUMPDEST PUSH1 0x40 MLOAD DUP1 PUSH2 0x24C DUP5 DUP3 PUSH2 0xAAC JUMP JUMPDEST SUB SWAP1 RETURN JUMPDEST PUSH1 0x20 SWAP1 PUSH1 0x40 MLOAD PUSH2 0x25F DUP2 PUSH2 0xB0A JUMP JUMPDEST PUSH1 0x0 DUP2 MSTORE PUSH1 0x0 DUP4 DUP3 ADD MSTORE PUSH1 0x0 PUSH1 0x40 DUP3 ADD MSTORE PUSH1 0x0 PUSH1 0x60 DUP3 ADD MSTORE DUP3 DUP3 DUP7 ADD ADD MSTORE ADD PUSH2 0x1A1 JUMP JUMPDEST PUSH1 0x4 PUSH1 0x20 PUSH1 0x1 SWAP3 PUSH1 0x40 MLOAD PUSH2 0x296 DUP2 PUSH2 0xB0A JUMP JUMPDEST DUP6 SLOAD DUP2 MSTORE DUP5 DUP7 ADD SLOAD DUP4 DUP3 ADD MSTORE PUSH1 0x2 DUP7 ADD SLOAD PUSH1 0x40 DUP3 ADD MSTORE PUSH1 0xFF PUSH1 0x3 DUP8 ADD SLOAD AND ISZERO ISZERO PUSH1 0x60 DUP3 ADD MSTORE DUP2 MSTORE ADD SWAP3 ADD SWAP3 ADD SWAP2 SWAP1 PUSH2 0xFD JUMP JUMPDEST CALLVALUE PUSH2 0xAA JUMPI PUSH1 0x60 CALLDATASIZE PUSH1 0x3 NOT ADD SLT PUSH2 0xAA JUMPI PUSH1 0x4 CALLDATALOAD PUSH1 0x24 CALLDATALOAD SWAP1 PUSH1 0x44 CALLDATALOAD PUSH1 0x1 DUP1 PUSH1 0xA0 SHL SUB PUSH1 0x0 SLOAD AND PUSH1 0x40 MLOAD SWAP1 PUSH4 0x30D0E4D PUSH1 0xE6 SHL DUP3 MSTORE DUP4 PUSH1 0x4 DUP4 ADD MSTORE PUSH1 0x20 DUP3 PUSH1 0x24 DUP2 DUP5 GAS STATICCALL SWAP1 DUP2 ISZERO PUSH2 0x510 JUMPI PUSH2 0x32A PUSH1 0x20 SWAP3 PUSH1 0x24 SWAP5 PUSH1 0x0 SWAP2 PUSH2 0x51C JUMPI JUMPDEST POP PUSH2 0xB60 JUMP JUMPDEST PUSH1 0x40 MLOAD SWAP3 DUP4 DUP1 SWAP3 PUSH4 0x31A9108F PUSH1 0xE1 SHL DUP3 MSTORE DUP8 PUSH1 0x4 DUP4 ADD MSTORE GAS STATICCALL DUP1 ISZERO PUSH2 0x510 JUMPI PUSH2 0x366 SWAP2 PUSH1 0x0 SWAP2 PUSH2 0x4E1 JUMPI JUMPDEST POP PUSH1 0x1 PUSH1 0x1 PUSH1 0xA0 SHL SUB AND CALLER EQ PUSH2 0xBC0 JUMP JUMPDEST DUP3 ISZERO PUSH2 0x4AE JUMPI DUP3 PUSH1 0x0 MSTORE PUSH1 0x2 PUSH1 0x20 MSTORE PUSH1 0x40 PUSH1 0x0 KECCAK256 SLOAD PUSH2 0x474 JUMPI PUSH1 0x40 MLOAD SWAP1 PUSH2 0x38C DUP3 PUSH2 0xB0A JUMP JUMPDEST DUP4 DUP3 MSTORE PUSH1 0x20 DUP3 ADD SWAP1 TIMESTAMP DUP3 MSTORE PUSH1 0x40 DUP4 ADD SWAP2 DUP2 DUP4 MSTORE PUSH1 0x60 DUP5 ADD SWAP4 PUSH1 0x0 DUP6 MSTORE DUP6 PUSH1 0x0 MSTORE PUSH1 0x1 PUSH1 0x20 MSTORE PUSH1 0x40 PUSH1 0x0 KECCAK256 DUP1 SLOAD PUSH9 0x10000000000000000 DUP2 LT ISZERO PUSH2 0x45E JUMPI PUSH2 0x3D8 SWAP2 PUSH1 0x1 DUP3 ADD DUP2 SSTORE PUSH2 0xA7A JUMP JUMPDEST SWAP2 SWAP1 SWAP2 PUSH2 0x448 JUMPI PUSH32 0x21A3E61DF3EF4DCE1AC0427D6EB76FAE755101EB4C33C96060CC204EA86D442 SWAP6 PUSH1 0x20 SWAP6 PUSH2 0x430 SWAP5 PUSH1 0x3 SWAP4 MLOAD DUP6 SSTORE MLOAD PUSH1 0x1 DUP6 ADD SSTORE MLOAD PUSH1 0x2 DUP5 ADD SSTORE MLOAD ISZERO ISZERO SWAP2 ADD SWAP1 PUSH1 0xFF DUP1 NOT DUP4 SLOAD AND SWAP2 ISZERO ISZERO AND OR SWAP1 SSTORE JUMP JUMPDEST DUP5 PUSH1 0x0 MSTORE PUSH1 0x2 DUP3 MSTORE DUP4 PUSH1 0x40 PUSH1 0x0 KECCAK256 SSTORE PUSH1 0x40 MLOAD SWAP1 DUP2 MSTORE LOG3 STOP JUMPDEST PUSH4 0x4E487B71 PUSH1 0xE0 SHL PUSH1 0x0 MSTORE PUSH1 0x0 PUSH1 0x4 MSTORE PUSH1 0x24 PUSH1 0x0 REVERT JUMPDEST PUSH4 0x4E487B71 PUSH1 0xE0 SHL PUSH1 0x0 MSTORE PUSH1 0x41 PUSH1 0x4 MSTORE PUSH1 0x24 PUSH1 0x0 REVERT JUMPDEST PUSH1 0x40 MLOAD PUSH3 0x461BCD PUSH1 0xE5 SHL DUP2 MSTORE PUSH1 0x20 PUSH1 0x4 DUP3 ADD MSTORE PUSH1 0x12 PUSH1 0x24 DUP3 ADD MSTORE PUSH18 0x4B657920616C726561647920696E20757365 PUSH1 0x70 SHL PUSH1 0x44 DUP3 ADD MSTORE PUSH1 0x64 SWAP1 REVERT JUMPDEST PUSH1 0x40 MLOAD PUSH3 0x461BCD PUSH1 0xE5 SHL DUP2 MSTORE PUSH1 0x20 PUSH1 0x4 DUP3 ADD MSTORE PUSH1 0xB PUSH1 0x24 DUP3 ADD MSTORE PUSH11 0x496E76616C6964206B6579 PUSH1 0xA8 SHL PUSH1 0x44 DUP3 ADD MSTORE PUSH1 0x64 SWAP1 REVERT JUMPDEST PUSH2 0x503 SWAP2 POP PUSH1 0x20 RETURNDATASIZE PUSH1 0x20 GT PUSH2 0x509 JUMPI JUMPDEST PUSH2 0x4FB DUP2 DUP4 PUSH2 0xB26 JUMP JUMPDEST DUP2 ADD SWAP1 PUSH2 0xBA1 JUMP JUMPDEST DUP6 PUSH2 0x355 JUMP JUMPDEST POP RETURNDATASIZE PUSH2 0x4F1 JUMP JUMPDEST PUSH1 0x40 MLOAD RETURNDATASIZE PUSH1 0x0 DUP3 RETURNDATACOPY RETURNDATASIZE SWAP1 REVERT JUMPDEST PUSH2 0x53C SWAP2 POP DUP5 RETURNDATASIZE DUP7 GT PUSH2 0x542 JUMPI JUMPDEST PUSH2 0x534 DUP2 DUP4 PUSH2 0xB26 JUMP JUMPDEST DUP2 ADD SWAP1 PUSH2 0xB48 JUMP JUMPDEST DUP9 PUSH2 0x324 JUMP JUMPDEST POP RETURNDATASIZE PUSH2 0x52A JUMP JUMPDEST CALLVALUE PUSH2 0xAA JUMPI PUSH2 0x557 CALLDATASIZE PUSH2 0xA64 JUMP JUMPDEST PUSH1 0x0 SLOAD PUSH1 0x40 MLOAD PUSH4 0x30D0E4D PUSH1 0xE6 SHL DUP2 MSTORE PUSH1 0x4 DUP2 ADD DUP5 SWAP1 MSTORE SWAP1 PUSH1 0x1 PUSH1 0x1 PUSH1 0xA0 SHL SUB AND PUSH1 0x20 DUP3 PUSH1 0x24 DUP2 DUP5 GAS STATICCALL SWAP1 DUP2 ISZERO PUSH2 0x510 JUMPI PUSH2 0x59E PUSH1 0x20 SWAP3 PUSH1 0x24 SWAP5 PUSH1 0x0 SWAP2 PUSH2 0x6E6 JUMPI POP PUSH2 0xB60 JUMP JUMPDEST PUSH1 0x40 MLOAD SWAP3 DUP4 DUP1 SWAP3 PUSH4 0x31A9108F PUSH1 0xE1 SHL DUP3 MSTORE DUP8 PUSH1 0x4 DUP4 ADD MSTORE GAS STATICCALL DUP1 ISZERO PUSH2 0x510 JUMPI PUSH2 0x5D9 SWAP2 PUSH1 0x0 SWAP2 PUSH2 0x6C7 JUMPI POP PUSH1 0x1 PUSH1 0x1 PUSH1 0xA0 SHL SUB AND CALLER EQ PUSH2 0xBC0 JUMP JUMPDEST DUP2 PUSH1 0x0 MSTORE PUSH1 0x1 PUSH1 0x20 MSTORE PUSH2 0x5F2 PUSH1 0x40 PUSH1 0x0 KECCAK256 SLOAD DUP3 LT PUSH2 0xBFC JUMP JUMPDEST DUP2 PUSH1 0x0 MSTORE PUSH1 0x1 PUSH1 0x20 MSTORE PUSH1 0xFF PUSH1 0x3 PUSH2 0x60D DUP4 PUSH1 0x40 PUSH1 0x0 KECCAK256 PUSH2 0xA7A JUMP JUMPDEST POP ADD SLOAD AND PUSH2 0x68C JUMPI PUSH2 0x652 SWAP1 DUP3 PUSH1 0x0 MSTORE PUSH1 0x1 PUSH1 0x20 MSTORE PUSH1 0x3 PUSH2 0x632 DUP3 PUSH1 0x40 PUSH1 0x0 KECCAK256 PUSH2 0xA7A JUMP JUMPDEST POP ADD PUSH1 0x1 PUSH1 0xFF NOT DUP3 SLOAD AND OR SWAP1 SSTORE DUP3 PUSH1 0x0 MSTORE PUSH1 0x1 PUSH1 0x20 MSTORE PUSH1 0x40 PUSH1 0x0 KECCAK256 PUSH2 0xA7A JUMP JUMPDEST POP SLOAD SWAP1 DUP2 PUSH1 0x0 MSTORE PUSH1 0x2 PUSH1 0x20 MSTORE PUSH1 0x0 PUSH1 0x40 DUP2 KECCAK256 SSTORE PUSH32 0xC6C4CB4467A4E9A913085A102940DE05BE5852DC857B4D22BFA847D95C4FAB77 PUSH1 0x0 DUP1 LOG3 STOP JUMPDEST PUSH1 0x40 MLOAD PUSH3 0x461BCD PUSH1 0xE5 SHL DUP2 MSTORE PUSH1 0x20 PUSH1 0x4 DUP3 ADD MSTORE PUSH1 0x13 PUSH1 0x24 DUP3 ADD MSTORE PUSH19 0x12D95E48185B1C9958591E481C995D9BDAD959 PUSH1 0x6A SHL PUSH1 0x44 DUP3 ADD MSTORE PUSH1 0x64 SWAP1 REVERT JUMPDEST PUSH2 0x6E0 SWAP2 POP PUSH1 0x20 RETURNDATASIZE PUSH1 0x20 GT PUSH2 0x509 JUMPI PUSH2 0x4FB DUP2 DUP4 PUSH2 0xB26 JUMP JUMPDEST DUP5 PUSH2 0x355 JUMP JUMPDEST PUSH2 0x6FD SWAP2 POP DUP5 RETURNDATASIZE DUP7 GT PUSH2 0x542 JUMPI PUSH2 0x534 DUP2 DUP4 PUSH2 0xB26 JUMP JUMPDEST DUP8 PUSH2 0x324 JUMP JUMPDEST CALLVALUE PUSH2 0xAA JUMPI PUSH1 0x20 CALLDATASIZE PUSH1 0x3 NOT ADD SLT PUSH2 0xAA JUMPI PUSH1 0x4 CALLDATALOAD PUSH1 0x0 MSTORE PUSH1 0x1 PUSH1 0x20 MSTORE PUSH1 0x40 PUSH1 0x0 KECCAK256 DUP1 SLOAD PUSH2 0x72F DUP2 PUSH2 0xC3C JUMP JUMPDEST SWAP2 PUSH2 0x73D PUSH1 0x40 MLOAD SWAP4 DUP5 PUSH2 0xB26 JUMP JUMPDEST DUP2 DUP4 MSTORE PUSH1 0x20 DUP4 ADD SWAP1 PUSH1 0x0 MSTORE PUSH1 0x20 PUSH1 0x0 KECCAK256 PUSH1 0x0 SWAP2 JUMPDEST DUP4 DUP4 LT PUSH2 0x766 JUMPI PUSH1 0x40 MLOAD DUP1 PUSH2 0x24C DUP8 DUP3 PUSH2 0xAAC JUMP JUMPDEST PUSH1 0x4 PUSH1 0x20 PUSH1 0x1 SWAP3 PUSH1 0x40 MLOAD PUSH2 0x779 DUP2 PUSH2 0xB0A JUMP JUMPDEST DUP6 SLOAD DUP2 MSTORE DUP5 DUP7 ADD SLOAD DUP4 DUP3 ADD MSTORE PUSH1 0x2 DUP7 ADD SLOAD PUSH1 0x40 DUP3 ADD MSTORE PUSH1 0xFF PUSH1 0x3 DUP8 ADD SLOAD AND ISZERO ISZERO PUSH1 0x60 DUP3 ADD MSTORE DUP2 MSTORE ADD SWAP3 ADD SWAP3 ADD SWAP2 SWAP1 PUSH2 0x751 JUMP JUMPDEST CALLVALUE PUSH2 0xAA JUMPI PUSH2 0x7BA CALLDATASIZE PUSH2 0xA64 JUMP JUMPDEST SWAP1 PUSH1 0x0 MSTORE PUSH1 0x1 PUSH1 0x20 MSTORE PUSH1 0x40 PUSH1 0x0 KECCAK256 DUP1 SLOAD DUP3 LT ISZERO PUSH2 0xAA JUMPI PUSH1 0x80 SWAP2 PUSH2 0x7DD SWAP2 PUSH2 0xA7A JUMP JUMPDEST POP DUP1 SLOAD SWAP1 PUSH1 0x1 DUP2 ADD SLOAD SWAP1 PUSH1 0xFF PUSH1 0x3 PUSH1 0x2 DUP4 ADD SLOAD SWAP3 ADD SLOAD AND SWAP2 PUSH1 0x40 MLOAD SWAP4 DUP5 MSTORE PUSH1 0x20 DUP5 ADD MSTORE PUSH1 0x40 DUP4 ADD MSTORE ISZERO ISZERO PUSH1 0x60 DUP3 ADD MSTORE RETURN JUMPDEST CALLVALUE PUSH2 0xAA JUMPI PUSH2 0x81C CALLDATASIZE PUSH2 0xA64 JUMP JUMPDEST PUSH1 0x0 SLOAD PUSH1 0x40 MLOAD PUSH4 0x30D0E4D PUSH1 0xE6 SHL DUP2 MSTORE PUSH1 0x4 DUP2 ADD DUP5 SWAP1 MSTORE SWAP2 SWAP3 SWAP2 SWAP1 PUSH1 0x1 PUSH1 0x1 PUSH1 0xA0 SHL SUB AND PUSH1 0x20 DUP3 PUSH1 0x24 DUP2 DUP5 GAS STATICCALL SWAP1 DUP2 ISZERO PUSH2 0x510 JUMPI PUSH2 0x866 PUSH1 0x20 SWAP3 PUSH1 0x24 SWAP5 PUSH1 0x0 SWAP2 PUSH2 0x6E6 JUMPI POP PUSH2 0xB60 JUMP JUMPDEST PUSH1 0x40 MLOAD SWAP3 DUP4 DUP1 SWAP3 PUSH4 0x31A9108F PUSH1 0xE1 SHL DUP3 MSTORE DUP7 PUSH1 0x4 DUP4 ADD MSTORE GAS STATICCALL DUP1 ISZERO PUSH2 0x510 JUMPI PUSH2 0x8A1 SWAP2 PUSH1 0x0 SWAP2 PUSH2 0x6C7 JUMPI POP PUSH1 0x1 PUSH1 0x1 PUSH1 0xA0 SHL SUB AND CALLER EQ PUSH2 0xBC0 JUMP JUMPDEST DUP1 PUSH1 0x0 MSTORE PUSH1 0x1 PUSH1 0x20 MSTORE PUSH2 0x8BA PUSH1 0x40 PUSH1 0x0 KECCAK256 SLOAD DUP4 LT PUSH2 0xBFC JUMP JUMPDEST DUP1 PUSH1 0x0 MSTORE PUSH1 0x1 PUSH1 0x20 MSTORE PUSH2 0x8D1 DUP3 PUSH1 0x40 PUSH1 0x0 KECCAK256 PUSH2 0xA7A JUMP JUMPDEST POP SLOAD SWAP2 DUP2 PUSH1 0x0 MSTORE PUSH1 0x1 PUSH1 0x20 MSTORE PUSH1 0x40 PUSH1 0x0 KECCAK256 SLOAD PUSH1 0x0 NOT DUP2 ADD SWAP1 DUP2 GT PUSH2 0x9FE JUMPI DUP1 DUP3 SUB PUSH2 0x986 JUMPI JUMPDEST POP POP DUP1 PUSH1 0x0 MSTORE PUSH1 0x1 PUSH1 0x20 MSTORE PUSH1 0x40 PUSH1 0x0 KECCAK256 DUP1 SLOAD DUP1 ISZERO PUSH2 0x970 JUMPI PUSH1 0x0 NOT ADD SWAP1 PUSH2 0x91E DUP3 DUP3 PUSH2 0xA7A JUMP JUMPDEST PUSH2 0x448 JUMPI PUSH1 0x3 PUSH1 0x0 SWAP2 DUP3 DUP2 SSTORE DUP3 PUSH1 0x1 DUP3 ADD SSTORE DUP3 PUSH1 0x2 DUP3 ADD SSTORE ADD SSTORE SSTORE DUP2 PUSH1 0x0 MSTORE PUSH1 0x2 PUSH1 0x20 MSTORE PUSH1 0x0 PUSH1 0x40 DUP2 KECCAK256 SSTORE PUSH32 0x6E2C35F956341E48B2EE0A42F5E04AEC2476BD4BB06CE7C4D3FDEAED7D495F07 PUSH1 0x0 DUP1 LOG3 STOP JUMPDEST PUSH4 0x4E487B71 PUSH1 0xE0 SHL PUSH1 0x0 MSTORE PUSH1 0x31 PUSH1 0x4 MSTORE PUSH1 0x24 PUSH1 0x0 REVERT JUMPDEST PUSH2 0x9A0 PUSH2 0x9B5 SWAP2 DUP5 PUSH1 0x0 MSTORE PUSH1 0x1 PUSH1 0x20 MSTORE PUSH1 0x40 PUSH1 0x0 KECCAK256 PUSH2 0xA7A JUMP JUMPDEST POP SWAP2 DUP4 PUSH1 0x0 MSTORE PUSH1 0x1 PUSH1 0x20 MSTORE PUSH1 0x40 PUSH1 0x0 KECCAK256 PUSH2 0xA7A JUMP JUMPDEST PUSH2 0x448 JUMPI DUP1 DUP3 EQ PUSH2 0x8F7 JUMPI PUSH1 0x3 PUSH1 0xFF DUP2 DUP5 PUSH2 0x9F7 SWAP6 SLOAD DUP6 SSTORE PUSH1 0x1 DUP2 ADD SLOAD PUSH1 0x1 DUP7 ADD SSTORE PUSH1 0x2 DUP2 ADD SLOAD PUSH1 0x2 DUP7 ADD SSTORE ADD SLOAD AND SWAP2 ADD SWAP1 PUSH1 0xFF DUP1 NOT DUP4 SLOAD AND SWAP2 ISZERO ISZERO AND OR SWAP1 SSTORE JUMP JUMPDEST DUP3 DUP1 PUSH2 0x8F7 JUMP JUMPDEST PUSH4 0x4E487B71 PUSH1 0xE0 SHL PUSH1 0x0 MSTORE PUSH1 0x11 PUSH1 0x4 MSTORE PUSH1 0x24 PUSH1 0x0 REVERT JUMPDEST CALLVALUE PUSH2 0xAA JUMPI PUSH1 0x20 CALLDATASIZE PUSH1 0x3 NOT ADD SLT PUSH2 0xAA JUMPI PUSH1 0x4 CALLDATALOAD PUSH1 0x0 MSTORE PUSH1 0x2 PUSH1 0x20 MSTORE PUSH1 0x20 PUSH1 0x40 PUSH1 0x0 KECCAK256 SLOAD PUSH1 0x40 MLOAD SWAP1 DUP2 MSTORE RETURN JUMPDEST CALLVALUE PUSH2 0xAA JUMPI PUSH1 0x0 CALLDATASIZE PUSH1 0x3 NOT ADD SLT PUSH2 0xAA JUMPI PUSH1 0x0 SLOAD PUSH1 0x1 PUSH1 0x1 PUSH1 0xA0 SHL SUB AND DUP2 MSTORE PUSH1 0x20 SWAP1 RETURN JUMPDEST PUSH1 0x40 SWAP1 PUSH1 0x3 NOT ADD SLT PUSH2 0xAA JUMPI PUSH1 0x4 CALLDATALOAD SWAP1 PUSH1 0x24 CALLDATALOAD SWAP1 JUMP JUMPDEST DUP1 SLOAD DUP3 LT ISZERO PUSH2 0xA96 JUMPI PUSH1 0x0 MSTORE PUSH1 0x20 PUSH1 0x0 KECCAK256 SWAP1 PUSH1 0x2 SHL ADD SWAP1 PUSH1 0x0 SWAP1 JUMP JUMPDEST PUSH4 0x4E487B71 PUSH1 0xE0 SHL PUSH1 0x0 MSTORE PUSH1 0x32 PUSH1 0x4 MSTORE PUSH1 0x24 PUSH1 0x0 REVERT JUMPDEST PUSH1 0x20 PUSH1 0x40 DUP2 DUP4 ADD SWAP3 DUP3 DUP2 MSTORE DUP5 MLOAD DUP1 SWAP5 MSTORE ADD SWAP3 ADD SWAP1 PUSH1 0x0 JUMPDEST DUP2 DUP2 LT PUSH2 0xAD0 JUMPI POP POP POP SWAP1 JUMP JUMPDEST SWAP1 SWAP2 SWAP3 PUSH1 0x20 PUSH1 0x80 PUSH1 0x1 SWAP3 PUSH1 0x60 DUP8 MLOAD DUP1 MLOAD DUP4 MSTORE DUP5 DUP2 ADD MLOAD DUP6 DUP5 ADD MSTORE PUSH1 0x40 DUP2 ADD MLOAD PUSH1 0x40 DUP5 ADD MSTORE ADD MLOAD ISZERO ISZERO PUSH1 0x60 DUP3 ADD MSTORE ADD SWAP5 ADD SWAP2 ADD SWAP2 SWAP1 SWAP2 PUSH2 0xAC3 JUMP JUMPDEST PUSH1 0x80 DUP2 ADD SWAP1 DUP2 LT PUSH8 0xFFFFFFFFFFFFFFFF DUP3 GT OR PUSH2 0x45E JUMPI PUSH1 0x40 MSTORE JUMP JUMPDEST SWAP1 PUSH1 0x1F DUP1 NOT SWAP2 ADD AND DUP2 ADD SWAP1 DUP2 LT PUSH8 0xFFFFFFFFFFFFFFFF DUP3 GT OR PUSH2 0x45E JUMPI PUSH1 0x40 MSTORE JUMP JUMPDEST SWAP1 DUP2 PUSH1 0x20 SWAP2 SUB SLT PUSH2 0xAA JUMPI MLOAD DUP1 ISZERO ISZERO DUP2 SUB PUSH2 0xAA JUMPI SWAP1 JUMP JUMPDEST ISZERO PUSH2 0xB67 JUMPI JUMP JUMPDEST PUSH1 0x40 MLOAD PUSH3 0x461BCD PUSH1 0xE5 SHL DUP2 MSTORE PUSH1 0x20 PUSH1 0x4 DUP3 ADD MSTORE PUSH1 0x12 PUSH1 0x24 DUP3 ADD MSTORE PUSH18 0x11925108191BD95CC81B9BDD08195E1A5CDD PUSH1 0x72 SHL PUSH1 0x44 DUP3 ADD MSTORE PUSH1 0x64 SWAP1 REVERT JUMPDEST SWAP1 DUP2 PUSH1 0x20 SWAP2 SUB SLT PUSH2 0xAA JUMPI MLOAD PUSH1 0x1 PUSH1 0x1 PUSH1 0xA0 SHL SUB DUP2 AND DUP2 SUB PUSH2 0xAA JUMPI SWAP1 JUMP JUMPDEST ISZERO PUSH2 0xBC7 JUMPI JUMP JUMPDEST PUSH1 0x40 MLOAD PUSH3 0x461BCD PUSH1 0xE5 SHL DUP2 MSTORE PUSH1 0x20 PUSH1 0x4 DUP3 ADD MSTORE PUSH1 0xD PUSH1 0x24 DUP3 ADD MSTORE PUSH13 0x2737BA102324A21037BBB732B9 PUSH1 0x99 SHL PUSH1 0x44 DUP3 ADD MSTORE PUSH1 0x64 SWAP1 REVERT JUMPDEST ISZERO PUSH2 0xC03 JUMPI JUMP JUMPDEST PUSH1 0x40 MLOAD PUSH3 0x461BCD PUSH1 0xE5 SHL DUP2 MSTORE PUSH1 0x20 PUSH1 0x4 DUP3 ADD MSTORE PUSH1 0x11 PUSH1 0x24 DUP3 ADD MSTORE PUSH17 0x92DCECC2D8D2C840D6CAF240D2DCC8CAF PUSH1 0x7B SHL PUSH1 0x44 DUP3 ADD MSTORE PUSH1 0x64 SWAP1 REVERT JUMPDEST PUSH8 0xFFFFFFFFFFFFFFFF DUP2 GT PUSH2 0x45E JUMPI PUSH1 0x5 SHL PUSH1 0x20 ADD SWAP1 JUMP JUMPDEST DUP1 MLOAD DUP3 LT ISZERO PUSH2 0xA96 JUMPI PUSH1 0x20 SWAP2 PUSH1 0x5 SHL ADD ADD SWAP1 JUMP JUMPDEST PUSH1 0x0 NOT DUP2 EQ PUSH2 0x9FE JUMPI PUSH1 0x1 ADD SWAP1 JUMP JUMPDEST DUP1 PUSH1 0x0 MSTORE PUSH1 0x2 PUSH1 0x20 MSTORE PUSH1 0x40 PUSH1 0x0 KECCAK256 SLOAD DUP1 ISZERO PUSH2 0xD50 JUMPI PUSH1 0x0 MSTORE PUSH1 0x1 PUSH1 0x20 MSTORE PUSH1 0x40 PUSH1 0x0 KECCAK256 DUP1 SLOAD PUSH2 0xCA4 DUP2 PUSH2 0xC3C JUMP JUMPDEST SWAP2 PUSH2 0xCB2 PUSH1 0x40 MLOAD SWAP4 DUP5 PUSH2 0xB26 JUMP JUMPDEST DUP2 DUP4 MSTORE PUSH1 0x20 DUP4 ADD SWAP1 PUSH1 0x0 MSTORE PUSH1 0x20 PUSH1 0x0 KECCAK256 PUSH1 0x0 SWAP2 JUMPDEST DUP4 DUP4 LT PUSH2 0xD5F JUMPI POP POP POP POP PUSH1 0x0 JUMPDEST DUP2 MLOAD DUP2 LT ISZERO PUSH2 0xD57 JUMPI DUP3 PUSH2 0xCE8 DUP3 DUP5 PUSH2 0xC54 JUMP JUMPDEST MLOAD MLOAD EQ PUSH2 0xCF7 JUMPI PUSH1 0x1 ADD PUSH2 0xCD4 JUMP JUMPDEST SWAP1 SWAP2 POP PUSH1 0x60 PUSH2 0xD06 DUP3 DUP5 PUSH2 0xC54 JUMP JUMPDEST MLOAD ADD MLOAD PUSH2 0xD50 JUMPI PUSH1 0x40 PUSH2 0xD19 DUP3 DUP5 PUSH2 0xC54 JUMP JUMPDEST MLOAD ADD MLOAD ISZERO ISZERO SWAP2 DUP3 PUSH2 0xD35 JUMPI JUMPDEST POP POP PUSH2 0xD30 JUMPI PUSH1 0x1 SWAP1 JUMP JUMPDEST PUSH1 0x0 SWAP1 JUMP JUMPDEST PUSH1 0x40 SWAP3 POP SWAP1 PUSH2 0xD43 SWAP2 PUSH2 0xC54 JUMP JUMPDEST MLOAD ADD MLOAD TIMESTAMP LT ISZERO CODESIZE DUP1 PUSH2 0xD25 JUMP JUMPDEST POP POP PUSH1 0x0 SWAP1 JUMP JUMPDEST POP POP POP PUSH1 0x0 SWAP1 JUMP JUMPDEST PUSH1 0x4 PUSH1 0x20 PUSH1 0x1 SWAP3 PUSH1 0x40 MLOAD PUSH2 0xD72 DUP2 PUSH2 0xB0A JUMP JUMPDEST DUP6 SLOAD DUP2 MSTORE DUP5 DUP7 ADD SLOAD DUP4 DUP3 ADD MSTORE PUSH1 0x2 DUP7 ADD SLOAD PUSH1 0x40 DUP3 ADD MSTORE PUSH1 0xFF PUSH1 0x3 DUP8 ADD SLOAD AND ISZERO ISZERO PUSH1 0x60 DUP3 ADD MSTORE DUP2 MSTORE ADD SWAP3 ADD SWAP3 ADD SWAP2 SWAP1 PUSH2 0xCC6 JUMP INVALID LOG2 PUSH5 0x6970667358 0x22 SLT KECCAK256 CALLER CALLDATALOAD BYTE DUP3 REVERT 0xDD PUSH10 0x88E23FE97304986DC878 CALL 0xDF RETURN SWAP15 0x21 0xE8 0xC 0xEB CALLCODE 0xE4 PC 0xD1 PUSH11 0x71B64736F6C634300081C STOP CALLER "},"methodIdentifiers":{"add(uint256,bytes32,uint256)":"c311755c","fidOfKey(bytes32)":"1f4c53cf","getActiveKeys(uint256)":"cbd4f9f7","getKeys(uint256)":"8d357fa3","idRegistry()":"0aa13b8c","isValidKey(bytes32)":"d0155220","keysOf(uint256,uint256)":"657683ae","remove(uint256,uint256)":"6526db7a","revoke(uint256,uint256)":"be1b6fc6"}}}}}